:100000000C9499050C94E0050C94E0050C94E00523
:100010000C94E0050C94E0050C94E0050C94E005CC
:100020000C94E0050C94E0050C94900F0C94621075
:100030000C94011F0C94E0050C94E0050C94E00571
:100040000C94E0050C94E0050C94E0050C94E0059C
:100050000C94E0050C94751F0C94E0050C94E005DD
:100060000C94E0050C94E0050C94E0050C94E0057C
:100070000C94E0050C94E0050C94E0050C94E0056C
:100080000C94E0050C94E0050C94E0050C94E0055C
:100090000C94E0050C94E0050C94E0050C94E0054C
:1000A0000C94E0050C94E0050C94E005CF10F110E1
:1000B000DF11F110DF1136115911DF11AE11C1112D
:1000C000B815B815E615E615431681169A189A184C
:1000D0009A169A189B179B176E189A189A188518D3
:1000E00035A131A1041607090B0A1D1B0619640569
:1000F000141A08151C171E1F202123222E26242D1A
:1001000025273012182F0C13280F0D340E33C1364B
:10011000381110372B2CC02A5829E0E3E182E25035
:100120004F5152006C6365556D570053A9AAA854EE
:100130005800566D6E2E62595A5B5C5D5E5F6F6053
:10014000618987853E3F403C4142914490466B47E0
:10015000004365450048494A4B4C3D4D3B4E3AE50E
:10016000E6E40000AAA9A8090B0A1D1B06196405EC
:10017000141A08151C173A3B3C3D3F3E454240448B
:100180004143494718524648284B0D4F4A50C14DEC
:100190005111104E2B2CC04C5835E0E3E182E24A5D
:1001A0004D4E4B006CF565F66DF90053A9AAA8F504
:1001B000F600FA6D6EF4F4FBF1FCF2F1F3FA6FF075
:1001C000F98987853E3F403C4142914490466B47C8
:1001D000004365450048494A4B4C3D4D3B4E3AE58E
:1001E000E6E400006164625F686F73745F6B626471
:1001F0005F726563763A204552524F522825642932
:100200000A000A0025303458006164625F686F7329
:10021000745F6B62645F726563763A200045525288
:100220004F523A206D65646961206B6579300A0030
:100230004552524F523A206D65646961206B657971
:10024000310A005D0A0025640020002564007C005E
:100250002530325800200025303258006164625F3A
:100260006D6F757365207261773A205B000A002517
:1002700030313662006164625F686F73745F6D6F06
:100280007573655F726563763A20006465627567B1
:1002900020656E61626C65642E0A005363616E3A7C
:1002A00020616464723A25642C20726567333A25B4
:1002B0003034580A00416674657220696E69743A78
:1002C0000A00466F756E643A206D65646961206B43
:1002D0006579730A005363616E3A20616464723A0F
:1002E00025642C20726567333A253034580A004261
:1002F00065666F726520696E69743A0A004B6579AC
:10030000626F6172642073746172742E0A005553B7
:100310004220636F6E666967757265642E0A000D10
:100320000A696E69740A005B445D005B435D002EE0
:100330000341004400420020006B00650079006228
:10034000006F00610072006400200063006F006EA7
:100350000076006500720074006500720000000EF7
:100360000374002E006D002E006B002E00000004B0
:1003700003090409027400040100A032090400000A
:1003800001030101000921110100012240000705BC
:10039000810308000A090401000103010200092188
:1003A00011010001224D000705820308000A09041B
:1003B00002000103000000092111010001223600A2
:1003C0000705830308000A09040300020300000074
:1003D00009211101000122220007058403200001E8
:1003E000070504032000011201100100000008EDC0
:1003F000FEDB0A0101010200010631FF0974A101BF
:100400000975150026FF00952075088102097615EB
:100410000026FF00952075089102C005010980A102
:1004200001850216810026B7001A81002AB70075DF
:100430001095018100C0050C0901A1018503160179
:1004400000269C021A01002A9C0275109501810069
:10045000C005010902A1010901A10005091901292D
:10046000051500250195057501810295017503812A
:10047000010501093009311581257F950275088133
:100480000609381581257F950175088106050C0A36
:1004900038021581257F950175088106C0C00501C8
:1004A0000906A101050719E029E7150025019508AE
:1004B0007501810295017508810105081901290559
:1004C00095057501910295017503910105071900C4
:1004D00029FF150026FF00950675088100C0636F8F
:1004E0006E73756D65723A20253034580A00737941
:1004F0007374656D3A20253034580A000A0025309F
:10050000325820006B6579626F6172643A20004C4A
:1005100045443A20253032580A00253032583A20D6
:100520002530386225730A00722F63203031323350
:10053000343536370A00290A002575002F00257545
:10054000005D28002564002000256400200025644B
:100550000020002564007C0025303258006D6F7546
:1005600073656B6579205B62746E7C782079207688
:1005700020685D287265702F61636C293A205B00EA
:100580006D6B5F776865656C5F74696D655F746FCF
:100590005F6D6178203D2025640A006D6B5F776890
:1005A00065656C5F6D61785F7370656564203D2083
:1005B00025640A006D6B5F74696D655F746F5F6DB4
:1005C0006178203D2025640A006D6B5F6D61785F66
:1005D0007370656564203D2025640A006D6B5F695A
:1005E0006E74657276616C203D2025640A006D6B27
:1005F0005F64656C6179203D2025640A006D6B5F46
:10060000776865656C5F74696D655F746F5F6D6158
:1006100078203D2025640A006D6B5F776865656C06
:100620005F6D61785F7370656564203D2025640AA5
:10063000006D6B5F74696D655F746F5F6D617820CD
:100640003D2025640A006D6B5F6D61785F73706596
:100650006564203D2025640A006D6B5F696E7465DA
:100660007276616C203D2025640A006D6B5F6465C5
:100670006C6179203D2025640A000A00257500364A
:100680003A20776865656C5F74696D655F746F5F4C
:100690006D61783A20000A00257500353A207768A8
:1006A00065656C5F6D61785F73706565643A2000A5
:1006B0000A00257500343A2074696D655F746F5FB8
:1006C0006D61783A20000A00257500333A206D618B
:1006D000785F73706565643A20000A002575003202
:1006E0003A20696E74657276616C286D73293A20C0
:1006F000000A00257500313A2064656C6179282A6A
:1007000031306D73293A20000A092D2056616C752D
:100710006573202D0A004D3E004D25643E20003FAC
:10072000007365742064656661756C740A00433EED
:10073000200077686572652064656C74613A206397
:100740007572736F723D25642C20776865656C3D0A
:1007500025640A53656520687474703A2F2F656E9E
:100760002E77696B6970656469612E6F72672F7788
:10077000696B692F4D6F7573655F6B6579730A00DF
:100780000A092D204D6F7573656B6579202D0A451B
:1007900053432F713A09717569740A313A096465D6
:1007A0006C6179282A31306D73290A323A09696EF1
:1007B00074657276616C286D73290A333A096D612C
:1007C000785F73706565640A343A0974696D655FB2
:1007D000746F5F6D61780A353A09776865656C5F9B
:1007E0006D61785F73706565640A363A097768658C
:1007F000656C5F74696D655F746F5F6D61780A0A1F
:10080000703A097072696E742076616C7565730A4E
:10081000643A097365742064656661756C74730A63
:1008200075703A092B310A646F776E3A092D310AD7
:10083000706775703A092B31300A7067646F776E94
:100840003A092D31300A0A7370656564203D2064D1
:10085000656C7461202A206D61785F7370656564D2
:10086000202A2028726570656174202F2074696DBC
:10087000655F746F5F6D6178290A003F004D3E200F
:1008800000433E20004C25640A000A092D20436FD6
:100890006E736F6C65202D0A4553432F713A0971B1
:1008A0007569740A6D3A096D6F7573656B65790AC0
:1008B000000A092D204D61676963202D0A643A09F9
:1008C00064656275670A783A096465627567206DC8
:1008D00061747269780A6B3A096465627567206BA6
:1008E0006579626F6172640A6D3A09646562756761
:1008F000206D6F7573650A763A0976657273696F54
:100900006E0A733A097374617475730A633A096302
:100910006F6E736F6C65206D6F64650A302D343AAD
:10092000096C61796572302D34284631302D46349A
:10093000290A506175733A09626F6F746C6F616454
:1009400065720A003F0074696D65725F726561646B
:10095000333228293A202530346C580A006B6579E7
:10096000626F6172645F69646C653A2025580A00A1
:100970006B6579626F6172645F70726F746F636FC1
:100980006C3A2025580A00686F73745F6B65796252
:100990006F6172645F6C65647328293A2025580A78
:1009A000000A092D20537461747573202D0A0047C5
:1009B00043433A20342E392E32204156522D4C4991
:1009C00042433A20312E382E3073766E20415652F3
:1009D0005F415243483A20617672350A004F5054C5
:1009E000494F4E533A204C554641204D4F555345A3
:1009F0004B45592045585452414B455920434F4E81
:100A0000534F4C4520434F4D4D414E4420343039D7
:100A1000360A004255494C443A2031393732623463
:100A200030202831343A31393A3036204D61722045
:100A300032352032303137290A005649443A2030C5
:100A4000784645454428742E6D2E6B2E292050493A
:100A5000443A2030783041444228414442206B657A
:100A600079626F61726420636F6E7665727465720D
:100A700029205645523A203078303130310A00442E
:100A80004553433A20636F6E766572742041444249
:100A9000206B6579626F61726420746F20555342D8
:100AA0000A000A092D2056657273696F6E202D0A9F
:100AB000000A6D6F7573653A206F66660A000A6DED
:100AC0006F7573653A206F6E0A000A6B6579626F05
:100AD0006172643A206F66660A000A6B6579626F1C
:100AE0006172643A206F6E0A000A6D6174726978EF
:100AF0003A206F66660A000A6D61747269783A205E
:100B00006F6E0A000A64656275673A206F6E0A00AC
:100B10000A64656275673A206F66660A000A0A62AF
:100B20006F6F746C6F616465722E2E2E2000433ED1
:100B3000200011241FBECFEFDAE0DEBFCDBF04B628
:100B400003FE27C08091DC019091DD01A091DE01C0
:100B5000B091DF018730904BA740B04BD1F4109299
:100B6000DC011092DD011092DE011092DF0114BE53
:100B700084B7877F84BF0FB6F894A89580916000F2
:100B8000886180936000109260000FBEE0E0F8E39F
:100B9000099511E0A0E0B1E0ECEEF0E502C00590AF
:100BA0000D92A433B107D9F721E0A4E3B1E001C06D
:100BB0001D92AC3DB207E1F70E94BE0C0C94742864
:100BC0000C940000FF93EF93E0913401F091350114
:100BD000309709F00995EF91FF910895FC018591F7
:100BE000803011F0EFDFFBCF0895FF27E0E230E225
:100BF00047FF0CC0419597FF09C0EDE260957095E5
:100C000080959095611D711D811D911D27FF02C06A
:100C1000219530E350E2AA27660F771F881F991F9E
:100C2000AA1FA41710F0A41B63955A95A9F7AA3020
:100C300008F0A95FA05DAF93F3956115710581057B
:100C4000910541F7ED3211F4EF93F395F21718F493
:100C50003F93F395FBCF8F91B5DFFA95E1F70895B8
:100C6000E991F9918591803021F0853219F0AADF60
:100C7000F9CF089520E0E89455915532C1F35033EF
:100C800011F4689455915A3348F4505390F3220F5D
:100C9000022E220F220F200D250FF4CF0EF42195E6
:100CA00089919991533619F3533729F1533559F1F5
:100CB000BC0188279927E8945C3621F489919991A1
:100CC00068945591543639F446EF7EF077FF0DC0A5
:100CD0008FEF9FEF0AC055374AE039F0583540E1B1
:100CE00021F0523642E009F00895FF93EF937DDF43
:100CF000EF91FF91B7CFFF93EF93FC01819180308B
:100D0000B9F360DFFBCFFF93EF9368DFF1CFDF93A1
:100D1000CF93CDB7DEB72596A3DFCF91DF910895AE
:100D2000282F2770E82FE695E695E695EF70F0E01E
:100D3000E95CFE4F87FF0AC081E090E001C0880FA8
:100D40002A95EAF780959081892308C081E090E098
:100D500001C0880F2A95EAF79081892B8083089536
:100D60000F931F93CF93DF93569A5E9A0E949D092B
:100D70002FEF87EA91E6215080409040E1F700C0D4
:100D800000008FEE92E09F938F930E9487060F9052
:100D90000F90C1E0D0E005ED12E063E08C2F0E94DF
:100DA000A109009771F09F938F93DF93CF931F93C7
:100DB0000F930E9487060F900F900F900F900F9047
:100DC0000F909FEF29EF80E0915020408040E1F7A5
:100DD00000C000002196C031D105F9F663E082E041
:100DE0000E94A10999278131910511F174F487308E
:100DF0009105F1F024F404970297F0F419C08930BA
:100E00009105B1F00D97C1F413C08D31910581F0BA
:100E100034F48431910561F0499771F409C0843C40
:100E2000910531F0873C910519F0813C910521F441
:100E300081E080934C0102C010924C0163E087E096
:100E40000E94A10991E0823009F090E090934D0159
:100E5000992341F082EC92E09F938F930E94870642
:100E60000F900F9023E042E063E082E00E94210AAD
:100E700085EB92E09F938F930E9487060F900F90CF
:100E8000C1E0D0E00BE912E063E08C2F0E94A109E1
:100E9000009771F09F938F93DF93CF931F930F93DE
:100EA0000E9487060F900F900F900F900F900F9059
:100EB0008FEF99EF20E0815090402040E1F700C093
:100EC00000002196C031D105F9F6E7E3F1E080E1B9
:100ED0008E0F11928E13FDCF0E94FC110E944409C7
:100EE0008091BE0181608093BE018BE892E00E94F8
:100EF000EE05569A5E98DF91CF911F910F9108955C
:100F0000CF93DF938FE79BEB0197F1F700C00000D1
:100F10000E941D0AEC01009711F481E0C3C097FD07
:100F200005C080914701816080934701D7FF05C0CC
:100F3000809147018E7F809347012D2F33272F7398
:100F40003327BE016F737727C6FF02C06054710953
:100F5000D6FF02C02054310940913601042E000C06
:100F6000550B649FC001659F900D749F900D1124D7
:100F700081386FEF960714F481E89FEF9195819582
:100F8000910981386FEF960714F481E89FEF8195FE
:100F900080934801249FC001259F900D349F900DA0
:100FA000112481382FEF920714F481E89FEF919577
:100FB0008195910981386FEF960714F481E89FEFCE
:100FC0008195809349018091BE0183FF60C085E7D0
:100FD00092E00E94EE05DF93CF938FE692E09F931D
:100FE0008F930E9487068DE692E00E94EE058CE5C5
:100FF00092E00E94EE0580913601282F082E000C09
:10100000330B3F938F9387E592E09F938F930E94DA
:10101000870685E592E00E94EE05809147011F92C8
:101020008F9380E592E09F938F930E9487068EE4D2
:1010300092E00E94EE0580914801282F082E000CB6
:10104000330B3F938F938BE492E09F938F930E9497
:10105000870689E492E00E94EE0580914901282FDD
:10106000082E000C330B3F938F9386E492E09F93FE
:101070008F930E94870683E492E00E94EE058DB76D
:101080009EB744960FB6F8949EBF0FBE8DBF87E4FF
:1010900091E00E9451128091360191E088300CF06D
:1010A00090E0890F80933601DF91CF9108951F93CF
:1010B000CF93DF93C0910001D09101018FEF9FEF9B
:1010C0009093010180930001CF3F8FEFD80709F083
:1010D0006AC08FE79BEB0197F1F700C0000082E048
:1010E0000E941A0AEC01892B09F05DC080914D0124
:1010F000882309F458C087E00E941A0A009709F46F
:1011000052C09C012F77332722303105A1F048F4DB
:101110002115310569F02130310599F480788A6410
:101120001AC02330310551F02F373105A1F009C025
:101130008078826410C0807889640DC0807888646B
:101140000AC080E392E09F938F930E9487060F90DE
:101150000F9081E18FC0292F33272F77332721303C
:10116000310579F050F02230310579F02330310526
:1011700081F4EC01D078D86416C0EC01D078D26448
:1011800012C0EC01D078DA640EC0EC01D078D964DA
:101190000AC08DE192E09F938F930E9487060F9083
:1011A0000F9080E167C08091BE0181FF18C0209739
:1011B00009F45DC089E092E00E94EE05DF93CF93D1
:1011C00084E092E09F938F930E94870682E092E0F2
:1011D0000E94EE050F900F900F900F9003C0209784
:1011E00009F445C0CF379FE7D90711F48FE705C051
:1011F000CF3F8FEFD80721F48FEF0E94900639C0C0
:101200002D2F3327822F1C2F2F3F310581F4DF93A1
:10121000CF9384EE91E09F938F930E9487060E9464
:10122000B0060F900F900F900F908C2F23C09091CD
:101230004C01992381F0A9014F775527423351057D
:1012400021F42078822F8A6006C04A30510519F4B3
:101250002078822F82630E9490061F3F51F0DC2F7E
:10126000CC27CF6FD0930101C093000102C080E072
:1012700001C081E0DF91CF911F910895E82FF0E048
:10128000E95CFE4F80810895682F609582E00C94A0
:101290005B0A509A83E091E00197F1F700C00000EB
:1012A00050989AEB9A95F1F700C00895509A8AEBFE
:1012B0008A95F1F700C0509883E091E00197F1F72B
:1012C00000C000000895EF92FF920F931F93CF93F9
:1012D000DF93C0E0D0E090E8E92EF12C082F10E079
:1012E000C7010C2E02C0959587950A94E2F78023DA
:1012F0009123892B19F00E94560902C00E944909C6
:101300002196C830D10561F7DF91CF911F910F91E0
:10131000FF90EF900895489B06C023E02A95F1F7CF
:1013200000000197C1F70895489906C023E02A9567
:10133000F1F700000197C1F7089558985098089563
:101340000895CF92DF92EF92FF920F931F93CF9366
:10135000DF931F92CDB7DEB7182FF894509A83EF22
:101360009BE00197F1F700C0000069830E945609D5
:1013700069816C6020E1129FC0011124862B0E94BC
:1013800063090E94490984EF91E00E949409892B26
:1013900021F4789482EE9FEF43C084EF91E00E94A5
:1013A0008B09009711F478943BC011E1C12CD12C2A
:1013B00002E882E890E00E9494097C01882351F1C0
:1013C00099270E948B09882329F1CC0CDD1C902FD2
:1013D0009E19E81A9E1518F46894C0F806C01131D9
:1013E00021F478948CEE9FEF1BC0115011F78FE51C
:1013F00091E00E949409892B21F478948BEE9FEF61
:101400000FC08BE590E00E948B09892BB1F778948F
:10141000C60106C07894812F90E09195819591093D
:101420000F90DF91CF911F910F91FF90EF90DF9080
:10143000CF90089560E00C94A10960E083E00C94E3
:10144000A1091F93CF93DF9300D01F92CDB7DEB7D2
:10145000182FF894509A83EF9BE00197F1F700C0A2
:1014600000002B834A8369830E9456096981686062
:1014700030E1139FC0011124862B0E9463090E9452
:1014800049098FE193E00197F1F700C000000E9445
:1014900056094A81842F0E9463092B81822F0E9462
:1014A00063090E94490978940F900F900F90DF9183
:1014B000CF911F910895262F277040E062E00C9491
:1014C000210A80915A0108959FB7F8941092510112
:1014D0009FBF9091D301943009F057C09091E900DB
:1014E0009F703091EC00232F217030FD20E8922B6B
:1014F00024E02093E9002091EB0020FF43C02091DD
:10150000EE0027FF3FC020914E01222321F02091C1
:10151000E80025FF37C010924E0126E03091E80028
:1015200035FD15C03091D301343061F53091EB00B9
:1015300035FD28C0215021F481E080934E0122C066
:10154000EFE9FFE03197F1F700C00000E7CF8093AB
:10155000F1008091E80085FD0AC08091E80080FFDD
:10156000FCCF8091E8008E778093E80006C08FB7AB
:10157000F89421E0209351018FBF9F709093E90070
:1015800080E008959F709093E9008FEF0895CF93C6
:10159000DF9300D01F92CDB7DEB79C018091D301BD
:1015A000843019F593E099833B832A839093E90073
:1015B0008FEF9091E800815095FD06C095ED9A95CA
:1015C000F1F700008111F5CF8091E80085FF0DC093
:1015D00040E050E063E070E0CE0101960E94800D93
:1015E0008091E8008E778093E8000F900F900F9025
:1015F000DF91CF910895CF93DF9300D01F92CDB7A5
:10160000DEB72091D301243021F522E029839B838A
:101610008A8383E08093E9008FEF9091E800815006
:1016200095FD06C095ED9A95F1F700008111F5CF73
:101630008091E80085FF0DC040E050E063E070E07D
:10164000CE0101960E94800D8091E8008E778093F4
:10165000E8000F900F900F90DF91CF9108952091A7
:10166000D3012430F1F422E02093E9002FEF3091F0
:10167000E800215035FD06C035ED3A95F1F7000040
:101680002111F5CF2091E80025FF0BC040E050E08C
:1016900065E070E00E94800D8091E8008E77809375
:1016A000E8000895CF93DF932091D301243039F5DA
:1016B00021E02093E9002FEF3091E800215035FD23
:1016C00006C035ED3A95F1F700002111F5CF2091D4
:1016D000E80025FF14C0EC0140E050E068E070E055
:1016E0000E94800D8091E8008E778093E80088E06A
:1016F000FE01A2E5B1E001900D928A95E1F7DF913C
:10170000CF9108958BE293E00E94EE058091D20183
:10171000811109C00E94150F0E94720F8091E20092
:1017200084608093E200089587E293E00E94EE05D2
:101730001092D2010895089520914F012F5F822FBA
:1017400062E30E943A28992319F020934F010895EB
:1017500010924F0180915101882371F18091D30142
:10176000843041F58091E9008F702091EC00922F38
:10177000917020FD90E8892B94E09093E90090917E
:10178000EB0090FF14C09091EE0097FF10C0909175
:10179000E80095FF03C01092F100F9CF9091E800A6
:1017A00090FF05C09091E8009E779093E8008F70BD
:1017B0008093E90010925101089542E061EC81E0CC
:1017C0000E948F0E42E061EC82E00E948F0E42E0A8
:1017D00061EC83E00E948F0E42E261EC84E00C94A5
:1017E0008F0E8091D501833009F453C030F48130DD
:1017F00071F0823009F48CC008958A3009F478C001
:101800008B3009F45EC0893009F09AC020C0809105
:10181000D401813A09F094C08091E800877F8093D9
:10182000E8008091D8019091D901892B21F468E0DA
:1018300082E591E003C060E080E090E070E00E940B
:10184000CB0D8091E8008B778093E800089580911C
:10185000D401813209F074C08091D8019091D901EE
:10186000892B09F06DC08091E800877F8093E800A4
:101870008091E80082FD05C08091D3018111F8CFED
:101880005FC08091F10080935A018091E8008B77CE
:1018900053C08091D401813A09F052C08091D8019F
:1018A0009091D901892B09F04BC08091E800877F86
:1018B0008093E8008091E80080FFFCCF80910C01CC
:1018C00036C08091D4018132D9F58091D8019091B0
:1018D000D901892BA9F58091E800877F8093E800E2
:1018E0000E94C40E8091D60180930C010C94BC1808
:1018F0008091D401813221F58091E800877F809327
:10190000E8000E94C40E8091D70180935B01089586
:101910008091D401813AA1F48091E800877F80937F
:10192000E8008091E80080FFFCCF80915B0180930C
:10193000F1008091E8008E778093E8000C94C40E4B
:1019400008950895089580915A018093500110924E
:101950005A0180E00E9444090E9481130C94BC1833
:101960000C94A30C0E94C01E8091D101882329F001
:101970000E94E91E81110C946A0D089584B7877F37
:1019800084BF0FB6F894A895809160008861809319
:101990006000109260000FBE90E080E80FB6F894EF
:1019A00080936100909361000FBE84E69AE00E94EC
:1019B000911E8FE193E00E94EE050E94A10C0E940F
:1019C000B8120E94150F0E94720F8091E20084608D
:1019D0008093E20078948091D3018430E1F78EE027
:1019E00093E00E94EE050E94BA1282E091E00E940C
:1019F000F7118DEF92E00E94EE050E94A20C8091FB
:101A0000D301853019F40E94B20CF9CF0E94C012A4
:101A1000F6CF0E94FD1E8091500180935A010895D7
:101A20000C94090D292F332723303105C9F064F4B4
:101A30002130310581F02230310509F043C084E7BF
:101A400090E023E733E042C021323105F1F0223249
:101A5000310541F137C082E190E027EE33E036C036
:101A600099278130910541F08230910541F0892B11
:101A700049F5EFE6F3E005C0EFE5F3E002C0EFE281
:101A8000F3E0849190E09F0121C06430D8F4E62F08
:101A9000F0E0EE0FFF1FEF5DFE4F2081318189E006
:101AA00090E014C0643070F470E0FB01EE0FFF1F93
:101AB000E75EFE4F20813181FB01EB5EFE4F8081AE
:101AC00090E004C080E090E020E030E0FA01318353
:101AD0002083089580E189BD82E189BD09B400FEBB
:101AE000FDCF8091D8008F7D8093D8008091E00059
:101AF00082608093E0008091E00081FDFCCF08953A
:101B0000CF92DF92EF92FF920F931F93CF93DF93C9
:101B1000EC018B016A010E94E30E811133C0C114F4
:101B2000D10439F0F60180819181081B190BC80F8F
:101B3000D91FE12CF12C0115110519F18091E80054
:101B400085FD16C08091E8008E778093E800C1146F
:101B5000D10449F0F60180819181E80EF91EF182ED
:101B6000E08285E00FC00E94E30E882321F30AC0C3
:101B700089918093F10001501109FFEFEF1AFF0ADC
:101B8000DACF80E0DF91CF911F910F91FF90EF901E
:101B9000DF90CF9008952091DA013091DB01261774
:101BA000370748F06115710539F42091E8002E7768
:101BB0002093E80001C0B90140E061157105A9F169
:101BC0002091D301222309F443C0253009F442C0F7
:101BD0002091E80023FD40C02091E80022FD32C0A2
:101BE0002091E80020FFE9CF4091F3002091F2001E
:101BF00030E0342BFC01CF016115710559F028301C
:101C0000310540F481918093F100615071092F5F9B
:101C10003F4FF1CF41E02830310509F040E02091FD
:101C2000E8002E772093E800C8CF4111C9CF0AC041
:101C30008091D301882361F0853061F08091E800C4
:101C400083FD0AC08091E80082FFF2CF80E0089512
:101C500082E0089583E0089581E008952091DA01FB
:101C60003091DB012617370748F06115710539F40B
:101C70002091E8002E772093E80001C0B901FC0113
:101C800020E06115710591F18091D301882309F459
:101C900040C0853009F43FC08091E80083FD3DC01D
:101CA0008091E80082FD2FC08091E80080FFE9CF9D
:101CB0002091F3008091F20090E0922B6115710564
:101CC00059F08830910540F424912093F100319629
:101CD000615071090196F2CF21E0089709F020E0E8
:101CE0008091E8008E778093E800CBCF2111CCCF94
:101CF0000AC08091D301882361F0853061F0809122
:101D0000E80083FD0AC08091E80082FFF2CF80E006
:101D1000089582E0089583E0089581E00895982F62
:101D2000973058F59093E900981739F07091EC00CE
:101D30002091ED005091F00003C0242F762F50E049
:101D400021FF19C03091EB003E7F3093EB003091C2
:101D5000ED003D7F3093ED003091EB00316030932A
:101D6000EB007093EC002093ED005093F000209175
:101D7000EE0027FF07C09F5FD3CF8F708093E900ED
:101D800081E0089580E008958091D40187FF11C01B
:101D90008091E80082FD05C08091D3018111F8CFC8
:101DA00011C08091E8008B770BC08091D30188230C
:101DB00049F08091E80080FFF8CF8091E8008E77AD
:101DC0008093E80008952091E4003091E50095E6C5
:101DD0004091EC00842F817040FF22C08091E80088
:101DE00080FD1CC08091D301882391F0853091F053
:101DF0008091EB0085FD10C04091E4005091E5001A
:101E00004217530729F39A01915011F784E008957E
:101E100082E0089583E0089581E0089580E00895C8
:101E20004091E80042FFDECF08950E94830F0E9498
:101E30008B0FE0EEF0E0808181608083E8EDF0E0E0
:101E400080818F77808319BCA7EDB0E08C918E7F65
:101E50008C9380818F7E80831092D20108950F939E
:101E60001F93CF93DF930E94830F0E948B0FC8EDC7
:101E7000D0E088818F778883888180688883888193
:101E80008F7D888319BC1092D3011092CF011092DC
:101E9000D1011092D00100EE10E0F80180818B7F1B
:101EA000808388818160888342E060E080E00E94D6
:101EB0008F0EE1EEF0E080818E7F8083E2EEF0E035
:101EC000808181608083808188608083F801808147
:101ED0008E7F8083888180618883DF91CF911F917D
:101EE0000F910895E8EDF0E080818F7E8083E7ED2B
:101EF000F0E080818160808384E082BF81E0809314
:101F0000D2010C942F0FE8EDF0E080818E7F80836A
:101F10001092E20008951092DA001092E100089504
:101F20001F920F920FB60F9211242F933F934F934E
:101F30005F936F937F938F939F93AF93BF93EF9331
:101F4000FF938091E10082FF0BC08091E20082FF4D
:101F500007C08091E1008B7F8093E1000E949C0B81
:101F60008091DA0080FF1FC08091D80080FF1BC0E5
:101F70008091DA008E7F8093DA008091D90080FF13
:101F80000DC080E189BD82E189BD09B400FEFDCFAD
:101F900081E08093D3010E94820B05C019BC10928E
:101FA000D3010E94940B8091E10080FF19C08091C1
:101FB000E20080FF15C08091E2008E7F8093E200F6
:101FC0008091E20080618093E2008091D80080627D
:101FD0008093D80019BC85E08093D3010E94B00C97
:101FE0008091E10084FF30C08091E20084FF2CC02A
:101FF00080E189BD82E189BD09B400FEFDCF8091F9
:10200000D8008F7D8093D8008091E1008F7E8093EF
:10201000E1008091E2008F7E8093E2008091E200F7
:1020200081608093E2008091CF01882311F084E0E9
:1020300007C08091E30087FD02C081E001C083E01A
:102040008093D3010E94100D8091E10083FF29C08D
:102050008091E20083FF25C08091E100877F80931B
:10206000E10082E08093D3011092CF018091E100E2
:102070008E7F8093E1008091E2008E7F8093E2006A
:102080008091E20080618093E20042E060E080E0C5
:102090000E948F0E8091F00088608093F0000E9473
:1020A0009B0BFF91EF91BF91AF919F918F917F918A
:1020B0006F915F914F913F912F910F900FBE0F90B5
:1020C0001F9018951F920F920FB60F9211242F9305
:1020D0003F934F935F936F937F938F939F93AF93B0
:1020E000BF93CF93DF93EF93FF93C091E900CF703D
:1020F0008091EC00D82FD17080FDD0E81092E900DB
:102100008091F000877F8093F00078940E94A61061
:102110001092E9008091F00088608093F000CD2B50
:10212000CF70C093E900FF91EF91DF91CF91BF9104
:10213000AF919F918F917F916F915F914F913F915F
:102140002F910F900FBE0F901F9018951F93CF9354
:10215000DF93CDB7DEB7AA970FB6F894DEBF0FBEF8
:10216000CDBFE4EDF1E088E08E0F9091F100919306
:102170008E13FBCF0E94F10B8091E80083FF1FC1FB
:102180008091D4019091D501492F50E04A305105FA
:1021900008F015C1FA01EA5AFF4F0C945A2880380A
:1021A00081F0823809F00BC18091D8018F70809343
:1021B000E9008091EB0085FB882780F91092E90007
:1021C00006C08091D0019091D101911182609091CF
:1021D000E800977F9093E8008093F1001092F1005F
:1021E000C8C0282F2D7F09F0EAC0882319F082305B
:1021F00061F0E5C08091D601813009F0E0C09330F4
:1022000009F080E08093D1012BC08091D60181112B
:1022100027C08091D8018F7009F4D1C08093E90064
:102220002091EB0020FF1CC0933021F48091EB0043
:10223000806214C09091EB0090619093EB0021E0DC
:1022400030E0A90102C0440F551F8A95E2F7409380
:10225000EA001092EA008091EB0088608093EB0026
:102260001092E9008091E800877F86C08111A7C0A5
:102270001091D6011F778091E3008078812B8093A5
:10228000E3008091E800877F8093E8000E94C40EFD
:102290008091E80080FFFCCF8091E300806880930C
:1022A000E300111102C082E001C083E08093D301FA
:1022B00086C08058823008F082C08091D60190910B
:1022C000D7018C3D53E0950779F583E08A838AE254
:1022D00089834FB7F894DE01139620E03EE051E287
:1022E000E32FF0E050935700E49120FF03C0E29504
:1022F000EF703F5FEF708E2F90E0EA3010F0C796DE
:1023000001C0C0968D939D932F5F243149F74FBF35
:102310008091E800877F8093E8006AE270E0CE0158
:1023200001960E94CB0D14C0AE014F5F5F4F6091CC
:10233000D8010E94120DBC01892B09F440C0909174
:10234000E800977F9093E80089819A810E942E0E81
:102350008091E8008B778093E80031C0803879F570
:102360008091E800877F8093E8008091CF0180937F
:10237000F1008091E8008E778093E8000E94C40EFF
:102380001EC081111CC09091D6019230C0F4809182
:10239000E800877F8093E8009093CF010E94C40EED
:1023A0008091CF01811106C08091E30087FD02C0BA
:1023B00081E001C084E08093D3010E94DD0B809115
:1023C000E80083FF0AC08091E800877F8093E800DF
:1023D0008091EB0080628093EB00AA960FB6F89490
:1023E000DEBF0FBECDBFDF91CF911F9108959093B7
:1023F0006101809360010895E0916001F0916101B5
:10240000309721F00190F081E02D099480E008954B
:10241000EF92FF920F931F93CF93DF93E0916001B0
:10242000F09161013097B1F18C010280F381E02DD0
:1024300009958091BE0182FF2DC080FF04C084E019
:1024400095E00E94EE05E80118E08EEFE82E84E0AA
:10245000F82E8091BE0180FF0BC088811F928F9360
:10246000FF92EF920E9487060F900F900F900F90AF
:10247000115021961111EDCF8091BE0180FF0AC04D
:102480008CEF94E0DF91CF911F910F91FF90EF902F
:102490000C94EE05DF91CF911F910F91FF90EF907B
:1024A0000895E0916001F0916101309721F004807E
:1024B000F581E02D09940895CF93DF93EC0180918D
:1024C0005E0190915F01C817D90709F1D0935F01B0
:1024D000C0935E01E0916001F09161013097B9F025
:1024E0000680F781E02DCE0109958091BE0182FF23
:1024F0000EC080FF0CC0DF93CF938EEE94E09F93CD
:102500008F930E9487060F900F900F900F90DF918E
:10251000CF910895CF93DF93EC0180915C0190916E
:102520005D01C817D90709F1D0935D01C0935C0123
:10253000E0916001F09161013097B9F00084F1857C
:10254000E02DCE0109958091BE0182FF0EC080FF73
:102550000CC0DF93CF938EED94E09F938F930E94F6
:1025600087060F900F900F900F90DF91CF910895F5
:102570000C9482130E942A1F0E94B0060C94A0099A
:10258000CF92DF92EF92FF920F931F93CF93DF933F
:1025900000D000D000D0CDB7DEB70E94570883E648
:1025A000C82E81E0D82E00E010E0E02E802F0E949F
:1025B0003E09F60141916F01F42EF826B1F40F5F48
:1025C0001F4F0031110589F78FEF89838A831B82A2
:1025D0000E94331F8160782F9D838C8349815A81AB
:1025E0006B818D810E94D41347C09091BE0191FFF1
:1025F00004C08E830E949E138E8120E030E04F2D18
:1026000050E0922FBA01022E02C0759567950A9488
:10261000E2F760FF2BC02983EA8221E030E0690104
:1026200002C0CC0CDD1C9A95E2F790E08C219D2134
:10263000892B09F420E02B830E94331F8160782FBF
:102640009D838C8349815A816B818D810E94D41333
:1026500049815A816B817C818D810E94AD1EF80178
:10266000ED59FE4F8081C826C08206C02F5F3F4FC4
:102670002830310531F6A3CF0E94AC1E0E948C2277
:102680000E948007109162010E94FC11181741F10D
:102690000E94FC11809362019091BE0192FF0EC0D6
:1026A00090FF0CC01F928F938FE095E09F938F93C4
:1026B0000E9487060F900F900F900F9080916201FB
:1026C00026960FB6F894DEBF0FBECDBFDF91CF9137
:1026D0001F910F91FF90EF90DF90CF900C94BE1E52
:1026E00026960FB6F894DEBF0FBECDBFDF91CF9117
:1026F0001F910F91FF90EF90DF90CF9008950C9471
:10270000440908950895CF93DF931F92CDB7DEB7A4
:1027100069830E943E0990E021E030E0698102C0B7
:10272000220F331F6A95E2F72823392381E0232BF8
:1027300009F480E00F90DF91CF910895EF92FF921E
:102740000F931F93CF93DF9388E295E00E94EE05ED
:10275000C0E0D0E089E2E82E81E0F82E0AE115E041
:102760008C2F0E943E090E94961EFF92EF921F92AC
:102770008F93DF93CF931F930F930E948706219629
:102780008DB79EB708960FB6F8949EBF0FBE8DBF4B
:10279000C031D10529F7DF91CF911F910F91FF90A3
:1027A000EF90089508950895CF93DF93CDB7DEB7E6
:1027B0002B970FB6F894DEBF0FBECDBF942F4F837B
:1027C000252F588769877A878B874A855B85452BB4
:1027D00021F02F3F09F59F3FF9F4DE01119686E0C5
:1027E000FD0111928A95E9F785E0FE013796019087
:1027F0000D928A95E1F749815A816B817C818D81A7
:102800009E810E94671B2B960FB6F894DEBF0FBE09
:10281000CDBFDF91CF9108954F81588569857A8525
:102820008B850E94AD1ED9CFCF93882309F4E8C0D1
:10283000C82F8238A1F40E94FC1181FDE1C089E318
:102840000E94F21D0E946B1E2FEF81EE94E021503A
:1028500080409040E1F700C0000089E315C0833854
:10286000C1F40E94FC1180FDCBC083E50E94F21DE3
:102870000E946B1E2FEF81EE94E02150804090402B
:10288000E1F700C0000083E50E940F1ECF910C9479
:102890006B1E8438A1F40E94FC1182FDB1C087E454
:1028A0000E94F21D0E946B1E2FEF81EE94E02150DA
:1028B00080409040E1F700C0000087E4E5CF8CEF56
:1028C0008C0F813A48F48C2F0E94B625811198C054
:1028D0008C2F0E94F21DDACF80E28C0F883048F4F2
:1028E000C77081E001C0880FCA95EAF70E94311EC7
:1028F000CDCF8BE58C0F833078F4C53A29F0C63AFA
:1029000031F083E890E005C081E890E002C082E801
:1029100090E0CF910C945C1288E58C0F853108F023
:102920006FC0C83A61F1C93A69F1CA3A71F1CB3A5C
:1029300079F1CC3A81F1CD3A89F1CE3A91F1CF3AA1
:1029400099F1C13BA1F1C03BA9F1C23BB1F1C33B3D
:10295000B9F1C43BC1F1C53BC9F1C63BD1F1C73B9D
:10296000D9F1C83BE1F1C93BE9F1CA3BF1F1CB3BFD
:10297000F9F1CC3B09F43FC080E090E03EC082EE2C
:1029800090E03BC089EE90E038C08AEE90E035C020
:1029900085EB90E032C086EB90E02FC083EB90E0B7
:1029A0002CC084EB90E029C087EB90E026C08CEC33
:1029B00090E023C08DEC90E020C083E891E01DC042
:1029C0008AE891E01AC082E991E017C084E991E0B9
:1029D00014C081E292E011C083E292E00EC084E272
:1029E00092E00BC085E292E008C086E292E005C06A
:1029F00087E292E002C08AE292E0CF910C948A12C0
:102A0000CF910895882309F466C08238A1F40E940A
:102A1000FC1181FF60C089E30E94F21D0E946B1EC1
:102A20002FEF81EE94E0215080409040E1F700C00C
:102A3000000089E315C08338B9F40E94FC1180FFBF
:102A40004AC083E50E94F21D0E946B1E2FEF81EEAB
:102A500094E0215080409040E1F700C0000083E501
:102A60000E940F1E0C946B1E8438A1F40E94FC116E
:102A700082FF31C087E40E94F21D0E946B1E2FEF7F
:102A800081EE94E0215080409040E1F700C00000CA
:102A900087E4E6CF9CEF980F913A10F390E2980FFD
:102AA000983050F4877091E001C0990F8A95EAF749
:102AB000892F0E94371ED6CF9BE5980F933020F4C4
:102AC00080E090E00C945C12885A853120F480E01C
:102AD00090E00C948A120895882321F00E94311E00
:102AE0000C946B1E0895882321F00E94371E0C94CD
:102AF0006B1E0895BF92CF92DF92EF92FF920F93D9
:102B00001F93CF93DF9300D000D000D0CDB7DEB7B6
:102B100025E0FC01DE01119601900D922A95E1F766
:102B2000FC0140813181F280258122952F706381E3
:102B30007481672B09F4FEC23F3F19F44F3F09F43B
:102B4000F9C26C0149833A8389819A812E830E945C
:102B5000B11D182FB92E0E94B01D0E94C01CEB2D74
:102B6000E295EF70F0E0E05AFF4F2E810C945A2866
:102B70008B2D807F9B2D9F70092F882311F002954C
:102B8000007FFF2049F0002309F481C2802F0E94BA
:102B9000441E0E946B1E7BC2812F0E9402150023DF
:102BA00009F4C8C2802F0E944A1E26960FB6F894D8
:102BB000DEBF0FBECDBFDF91CF911F910F91FF9070
:102BC000EF90DF90CF90BF900C946B1E8B2D807F89
:102BD0009B2D9F70092F803211F00295007F1123E9
:102BE00019F0113009F12AC0FF20B1F0802F222303
:102BF00051F1213041F526960FB6F894DEBF0FBE95
:102C0000CDBFDF91CF911F910F91FF90EF90DF909B
:102C1000CF90BF900C94541E222319F0213009F458
:102C200089C20E94571E2DC0FF20F1F0263008F007
:102C300081C20E942E1E802329F023C0FF20F9F0BC
:102C4000211116C0802F26960FB6F894DEBF0FBE56
:102C5000CDBFDF91CF911F910F91FF90EF90DF904B
:102C6000CF90BF900C946C15253008F063C209C05A
:102C7000F601858180FF0BC28F708583E3CF211120
:102C80001BC2802F82C12B2D26952695237030E004
:102C90002115310521F021303105D1F04BC2FF2043
:102CA00021F0812F9B2D937002C080E090E026964A
:102CB0000FB6F894DEBF0FBECDBFDF91CF911F914D
:102CC0000F91FF90EF90DF90CF90BF900C945C122B
:102CD000FF2021F0812F9B2D937002C080E090E0B7
:102CE00026960FB6F894DEBF0FBECDBFDF91CF9111
:102CF0001F910F91FF90EF90DF90CF90BF900C94B9
:102D00008A12812FFF2019F00E94122102C00E9416
:102D10007A2126960FB6F894DEBF0FBECDBFDF91A5
:102D2000CF911F910F91FF90EF90DF90CF90BF90C8
:102D30000C94FF218B2D837009F07BC0F110FAC138
:102D4000812F829586958770880F880F912F9F70AD
:102D5000C92ED12CE12CF12C082E04C0CC0CDD1C8A
:102D6000EE1CFF1C0A94D2F714FF12C04FE050E093
:102D700060E070E004C0440F551F661F771F8A95FE
:102D8000D2F7CB01BA01609570958095909503C0FC
:102D900060E070E0CB012B2D269526952370422F05
:102DA00050E042305105D9F04330510569F16C29AA
:102DB0007D298E299F294130510551F126960FB664
:102DC000F894DEBF0FBECDBFDF91CF911F910F9161
:102DD000FF90EF90DF90CF90BF900C94D51C6C29A2
:102DE0007D298E299F2926960FB6F894DEBF0FBE47
:102DF000CDBFDF91CF911F910F91FF90EF90DF90AA
:102E0000CF90BF900C94E71C0E94D51CC701B6015F
:102E100026960FB6F894DEBF0FBECDBFDF91CF91DF
:102E20001F910F91FF90EF90DF90CF90BF900C9487
:102E3000C31CFF2019F08B2D817001C0869588235B
:102E400009F478C1812F829586958770880F880F45
:102E5000912F9F70C92ED12CE12CF12C082E04C08B
:102E6000CC0CDD1CEE1CFF1C0A94D2F714FF12C020
:102E70004FE050E060E070E004C0440F551F661F53
:102E8000771F8A95D2F7CB01BA016095709580952E
:102E9000909503C060E070E0CB012B2D2695269520
:102EA0002370422F50E042305105D9F04330510594
:102EB00069F16C297D298E299F294130510551F1F5
:102EC00026960FB6F894DEBF0FBECDBFDF91CF912F
:102ED0001F910F91FF90EF90DF90CF90BF900C94D7
:102EE0008C1D6C297D298E299F2926960FB6F89472
:102EF000DEBF0FBECDBFDF91CF911F910F91FF902D
:102F0000EF90DF90CF90BF900C949E1D0E948C1D7F
:102F1000C701B60126960FB6F894DEBF0FBECDBF2F
:102F2000DF91CF911F910F91FF90EF90DF90CF90A5
:102F3000BF900C947A1D103FC9F128F480E4810FF2
:102F4000803250F09FC0123F09F461C008F44AC0BB
:102F5000133F09F471C096C0012F00718B2D8F7142
:102F6000FF2051F00E94131D812F002319F082953C
:102F7000807F69CE8F7067CE0E94341D812F002321
:102F800019F08295807F01C08F7026960FB6F89455
:102F9000DEBF0FBECDBFDF91CF911F910F91FF908C
:102FA000EF90DF90CF90BF900C947315FF20B1F09D
:102FB000253008F0BFC08B2D8F7126960FB6F89480
:102FC000DEBF0FBECDBFDF91CF911F910F91FF905C
:102FD000EF90DF90CF90BF900C94591D263008F0F1
:102FE000A9C0E9CFFF20A9F08B2D8F7126960FB6CF
:102FF000F894DEBF0FBECDBFDF91CF911F910F912F
:10300000FF90EF90DF90CF90BF900C94131DFF20A6
:1030100059F38B2D8F7126960FB6F894DEBF0FBE35
:10302000CDBFDF91CF911F910F91FF90EF90DF9077
:10303000CF90BF900C94341DFF2099F08B2D8F7191
:1030400026960FB6F894DEBF0FBECDBFDF91CF91AD
:103050001F910F91FF90EF90DF90CF90BF900C9455
:10306000FE1C26960FB6F894DEBF0FBECDBFDF91D3
:10307000CF911F910F91FF90EF90DF90CF90BF9075
:103080000C94F91CFF20A9F0222309F4ADCF812F65
:1030900026960FB6F894DEBF0FBECDBFDF91CF915D
:1030A0001F910F91FF90EF90DF90CF90BF900C9405
:1030B0001414222309F4ADCF812F26960FB6F8946D
:1030C000DEBF0FBECDBFDF91CF911F910F91FF905B
:1030D000EF90DF90CF90BF900C9402154B2D4F7066
:1030E000612FC6010E94BC1F26960FB6F894DEBF62
:1030F0000FBECDBFDF91CF911F910F91FF90EF9049
:10310000DF90CF90BF900C940B1C4B2D4F70612F14
:10311000C60126960FB6F894DEBF0FBECDBFDF9175
:10312000CF911F910F91FF90EF90DF90CF90BF90C4
:103130000C94BF1F26960FB6F894DEBF0FBECDBF0E
:10314000DF91CF911F910F91FF90EF90DF90CF9083
:10315000BF9008950E94511E0E94201E0E946B1E67
:103160000E9431230E94FF2180E090E00E945C12C7
:1031700080E090E00C948A120E94411E0C94AA18E0
:103180000E94B11D292F22952F7030E02C3031057F
:103190004CF42A303105C4F4225031092230310573
:1031A00040F023C02C303105D1F02F303105B9F07B
:1031B0001CC0853A28F48430B0F4823028F413C05F
:1031C00090E2980F983078F0883E30F4803E58F4C2
:1031D0008450813A50F407C0803F39F404C093FB17
:1031E000882780F9089581E0089580E00895CF93BD
:1031F000DF9300D000D01F92CDB7DEB70F900F90B5
:103200000F900F900F90DF91CF910895CF93DF93A0
:1032100000D000D000D0CDB7DEB726960FB6F89418
:10322000DEBF0FBECDBFDF91CF9108951F93CF9327
:10323000DF93C091730116E080917401C81799F073
:10324000D0E01C9FF0011D9FF00D1124EB58FE4FA4
:103250004081518162817381848195810E94061928
:103260002196C770E9CFDF91CF911F9108954091CA
:10327000A5015091A6016091A7017091A8018091CC
:10328000A9019091AA010C9406198091AA01829536
:103290008F7009F054C08091A701882309F44FC0B2
:1032A00080917301A09174016091A5017091A601B4
:1032B0004091A8015091A901B6E08A1709F43FC0D6
:1032C00090E041155105C1F17F3F11F46F3FA1F12D
:1032D000B89FF001B99FF00D1124EB58FE4F2181EA
:1032E00072132AC02081621327C02281211124C0B9
:1032F000238134812417350710F421503109241B10
:10330000350B283C3105C0F42091AA012F702061B3
:103310002093AA0126E0289FF001299FF00D112497
:10332000E658FE4F80818F708061808385EA91E04E
:103330000E947A150C94161901968770BECF0895D5
:10334000CF92DF92EF92FF920F931F93CF93DF9371
:10335000CDB7DEB762970FB6F894DEBF0FBECDBF14
:103360008C0185E0F801DE011D9601900D928A9591
:10337000E1F7D8014C9111965C91119712966C91DE
:1033800012971396CD90DC9014973091A50170910F
:10339000A6018091A8019091A901009709F46BC141
:1033A0007F3F19F43F3F09F466C1E090A701EE208A
:1033B00009F4C0C02091AA01C816D90628F0F60168
:1033C000E81BF90BCF0104C0809590958C0D9D1DD5
:1033D000FF24F394883C910578F0F12C207F09F0CC
:1033E000C6C07C2DD98AC88A89890E94F71885EAC7
:1033F00091E00E947A15B1C0822F807F09F046C00B
:10340000751314C0341312C0611110C02F702061E5
:103410002093AA010E94371985EA91E00E947A154B
:103420008091AA01D80115968C932EC0CD2819F150
:103430005F3F11F44F3FF9F0F62E61111CC08091EF
:1034400073012091740136E0821709F45AC090E0AC
:10345000389FF001399FF00D1124EB58FE4F718118
:10346000571306C07081471303C07281711103C0E6
:1034700001968770E9CFF62E662309F418C1809172
:10348000AA0181608093AA01F12C11C1751308C0B3
:10349000341306C0611104C08091AA01D801C3C0D1
:1034A0004D875E878D859E856A8B0E94C0186A89CC
:1034B0008823E1F16623D1F12091AA01822F829520
:1034C0008F7090E0029774F08091A5019091A60111
:1034D00098878F831986DB86CA862C87CE0107964C
:1034E0000E947A1586E0F801A5EAB1E001900D92FC
:1034F0008A95E1F70E9445190E943719FF24F39439
:10350000D6C04D875E878D859E850E94B11D292F6F
:1035100022952F7030E0223031050CF0BCC09F7036
:1035200009F0B6C0805E883008F4C1C0C8010E94AE
:103530007A15E4CFC816D90608F453C0F601E81B83
:10354000F90BCF01883C910508F450C0F12C7C2D7B
:10355000D98AC88A89890E94F718E5EAF1E086E0ED
:10356000DF011D928A95E9F70E943719A0C07513F3
:1035700014C0341312C0611110C08091AA01F80167
:103580008583C8010E947A1586E0E5EAF1E0DF0153
:103590001D928A95E9F7FE2C8AC04D875E878D853E
:1035A0009E856A8B0E94C0186A89882309F4BECF61
:1035B000662309F4BBCF2091AA01822F82958F70D8
:1035C00090E002970CF48ECF8091A5019091A60116
:1035D0009A8389831B82DD82CC822E83CE01019661
:1035E0007FCF809590958C0D9D1DACCFF62E6623D8
:1035F00009F49CCF75132EC034132CC02091AA015E
:1036000020FD1FC0822F82958F70D9F0D8011596AA
:103610002C9315978F3049F08F5F982F9295907F5C
:10362000822F8F70892B15968C93C8010E947A1572
:1036300086E0F801A5EAB1E001900D928A95E1F7E4
:1036400093CF86E0F801A5EAB1E001900D928A954A
:10365000E1F72DC04D875E878D859E850E94C0183D
:10366000811140CF8091AA0181608093AA01C80195
:103670000E947A151CC0662309F458CF4D875E87D7
:103680008D859E850E94C018882309F44FCF2ACFCC
:10369000811148CF0CC0243031050CF047CF9F700A
:1036A00009F440CFF8019581907F09F03BCF8F2D31
:1036B00062960FB6F894DEBF0FBECDBFDF91CF91FB
:1036C0001F910F91FF90EF90DF90CF9008951F937F
:1036D000CF93DF93CDB7DEB72C970FB6F894DEBF4C
:1036E0000FBECDBF4F83588769877A878B879C87AA
:1036F000CE0107960E94A019882369F08F819885D2
:103700002A853B85232BF1F19F3F09F063C08F3F52
:1037100009F060C037C086E0FE013796DE011196E1
:1037200001900D928A95E1F76F817885EA85FB8596
:10373000309741F17F3F11F46F3F21F120917401E7
:1037400030E0C9010196877099274091730150E0DC
:103750008417950709F447C069837A83FD83EC8356
:1037600096E0929FD001939FB00D1124AB58BE4FAD
:10377000FE01319601900D929A95E1F780937401C4
:103780000E94161916E080917301909174018917B7
:10379000C1F1189FC00111248B589E4F0E94A0199F
:1037A000882379F1E09173011E9FF0011124EB58F9
:1037B000FE4F4081518162817381848195810E9495
:1037C00006198091730190E0019687709927809384
:1037D0007301D9CF4F81588569857A858B859C8502
:1037E0000E940619CFCF0E94BC181092740110924B
:1037F0007301E5EAF1E086E0DF011D928A95E9F7C1
:10380000C1CF2C960FB6F894DEBF0FBECDBFDF91AF
:10381000CF911F910895DF92EF92FF920F931F9324
:10382000CF93DF93FC01892B09F48AC0E12CF12CA2
:10383000DD24D394EF0121968491853709F461C08A
:1038400058F4843708F04EC0843008F06AC08130E4
:10385000D1F0823071F174C0883709F45DC050F442
:10386000863709F455C0873709F06AC08E2D0E944B
:103870003E1E54C09CE7980F903708F061C08F77C8
:103880000E94021550C08F010E5F1F4FFE018491F0
:1038900090E2980F983050F48770FD2D01C0FF0F13
:1038A0008A95EAF78F2F0E94441E14C00E941414B8
:1038B00013C08F010E5F1F4FFE01C49180E28C0F79
:1038C000883060F4C7708D2D01C0880FCA95EAF763
:1038D0000E944A1E0E946B1EE80125C08C2F0E9488
:1038E0000215FACF9F012E5F3F4FFE01C491CC23FA
:1038F00069F08FE99FE00197F1F700C00000C15027
:10390000F6CF9F012E5F3F4FFE01F490E9010BC0FF
:103910000E942E1EE82E07C00E94411E0E946B1EB0
:1039200002C00E9414148F2D882341F0EFE9FFE0BC
:103930003197F1F700C000008150F6CFFE017ACF39
:10394000DF91CF911F910F91FF90EF90DF9008953D
:103950006093AF017093B0018093B1019093B20175
:103960000E94BC1E0C94AA186093AB017093AC012A
:103970008093AD019093AE010E94BD1E0C94AA18D5
:1039800008950C94A81C0F931F930091AF01109100
:10399000B0012091B1013091B201602B712B822BCB
:1039A000932B1F910F910C94A81C0F931F930091C0
:1039B000AF011091B0012091B1013091B2016023AB
:1039C0007123822393231F910F910C94A81C0F93B2
:1039D0001F930091AF011091B0012091B10130917E
:1039E000B20160277127822793271F910F910C94B2
:1039F000A81C60E070E0CB010C94B41C0F931F93E3
:103A000041E050E060E070E08A019B0104C0000FDB
:103A1000111F221F331F8A95D2F7C901B8011F91C8
:103A20000F910C94B41C0F931F9341E050E060E0A1
:103A300070E004C0440F551F661F771F8A95D2F7A8
:103A40008091AB019091AC01A091AD01B091AE011C
:103A50008A019B01082B192B2A2B3B2BC901B8018A
:103A60001F910F910C94B41C0F931F9341E050E0F1
:103A700060E070E004C0440F551F661F771F8A95F1
:103A8000D2F740955095609570958091AB019091DB
:103A9000AC01A091AD01B091AE018A019B01082358
:103AA00019232A233B23C901B8011F910F910C94BC
:103AB000B41C0F931F9341E050E060E070E004C03D
:103AC000440F551F661F771F8A95D2F78091AB016F
:103AD0009091AC01A091AD01B091AE018A019B0122
:103AE000082719272A273B27C901B8011F910F91E1
:103AF0000C94B41C0F931F930091AB011091AC0177
:103B00002091AD013091AE01602B712B822B932B54
:103B10001F910F910C94B41C0F931F930091AB0154
:103B20001091AC012091AD013091AE016023712361
:103B3000822393231F910F910C94B41C0F931F9316
:103B40000091AB011091AC012091AD013091AE011B
:103B500060277127822793271F910F910C94B41C23
:103B60000895CF92DF92EF92FF920F931F93CF931E
:103B7000DF938C01C090AF01D090B001E090B10113
:103B8000F090B2014091AB015091AC016091AD0158
:103B90007091AE01C42AD52AE62AF72ACFE1D0E0F7
:103BA000D701C6010C2E04C0B695A79597958795A9
:103BB0000A94D2F780FF07C0B8018C2F0E94DB1F48
:103BC0008130910531F4219758F7B80180E00E94C7
:103BD000DB1FDF91CF911F910F91FF90EF90DF904E
:103BE000CF90089520910D0130910E01F901329688
:103BF0009FEF40E05191581789F09F3F19F4511100
:103C000001C0942F4F5F4630A9F79F3F39F0F9016B
:103C1000E90FF11D97FDFA9582830895089520918B
:103C20000D0130910E01F9013296285F3F4F9081CE
:103C3000981301C010823196E217F307C1F7089577
:103C400081E090E0E0910D01F0910E01E80FF91F85
:103C50001082019688309105A9F708958091BD01E1
:103C600008959091BD01892B8093BD0108958095A1
:103C70009091BD0189238093BD0108958093BD017A
:103C800008951092BD0108959091BC01892B8093F5
:103C9000BC01089580959091BC0189238093BC015B
:103CA00008951092BC0108958093B3010895109275
:103CB000B301089580910D0190910E01FC013196A0
:103CC0009C01285F3F4F80E0919191118F5FE21737
:103CD000F307D1F70895E0910D01F0910E01809165
:103CE000BD018083E0910D01F0910E0190818091E2
:103CF000BC01892B80838091B301882361F0E0911E
:103D00000D01F0910E019081892B80830E945A1E33
:103D100081111092B30180910D0190910E010C94CC
:103D20000812909335018093340108958295982F5D
:103D30009C7C392F36953695282F237344E0249F99
:103D4000C0011124932F982B292F2A7A2695892F89
:103D50008575880F822B08950895CF93DF9300D047
:103D600000D01F92CDB7DEB70F900F900F900F903D
:103D70000F90DF91CF910895089508950C947F13CB
:103D80008091D301843021F11092BF0120E488E1B9
:103D900090E00FB6F894A895809360000FBE209332
:103DA000600083B7817F846083BF83B7816083BFF6
:103DB0007894889583B78E7F83BF0FB6F894A895C3
:103DC00080916000886180936000109260000FBE57
:103DD0000895CF930E94D2130E9457080E94D313D4
:103DE000C0E08C2F0E943E09811104C0CF5FC0311A
:103DF000C1F701C081E0CF9108950E9481130C9416
:103E0000BC181F920F920FB60F9211248F939F939D
:103E1000AF93BF938091BF01811113C08091C00106
:103E20009091C101A091C201B091C3014196A11D21
:103E3000B11D8093C0019093C101A093C201B093C2
:103E4000C301BF91AF919F918F910F900FBE0F90C3
:103E50001F90189582E084BD93E095BD9AEF97BDC1
:103E600080936E0008952FB7F8948091C0019091CF
:103E7000C101A091C201B091C3012FBF08952FB716
:103E8000F8946091C0017091C1018091C20190913C
:103E9000C3012FBF0895CF92DF92EF92FF920F934D
:103EA0001F932FB7F8944091C0015091C1016091C8
:103EB000C2017091C3012FBF6A017B01EE24FF2470
:103EC0008C0120E030E0C016D106E206F30610F4C3
:103ED000415051099A01281B390BC9011F910F91BB
:103EE000FF90EF90DF90CF9008951F920F920FB642
:103EF0000F9211248F939F93AF93BF938091C00132
:103F00009091C101A091C201B091C3010196A11D80
:103F1000B11D8093C0019093C101A093C201B093E1
:103F2000C301BF91AF919F918F910F900FBE0F90E2
:103F30001F9018950E94150FF8942FEF87EA91E6CD
:103F4000215080409040E1F700C0000087E090EBF6
:103F5000DC018093DC019093DD01A093DE01B0933E
:103F6000DF019CE088E10FB6F894A895809360008B
:103F70000FBE90936000FFCF80E090E00895089519
:103F8000E72FF0E090E1899FE00DF11D112483E01F
:103F9000EE0FFF1F8A95E1F7E60FF11DEC51FF4F81
:103FA00084910895E82FF0E0EE0FFF1FE05AF040F3
:103FB0008591949108950E94C01F90E4980F9032CB
:103FC00018F40E94D21F08958D3B50F4883AA0F552
:103FD000853A28F5843000F5813009F49DC099C0F8
:103FE000883E98F4803EC0F48F3B09F092C00E9456
:103FF000BC182FEF80E792E0215080409040E1F71D
:1040000000C000000E949A1F84C0803F08F481C055
:10401000282F30E0306582C0282F30E07FC0853AFD
:1040200029F0863A31F023E830E478C021E830E422
:1040300075C022E830E472C0883A61F1893A69F1CA
:104040008A3A71F18B3A79F18C3A81F18D3A89F1A2
:104050008E3A91F18F3A99F1813BA1F1803BA9F120
:10406000823BB1F1833BB9F1843BC1F1853BC9F19E
:10407000863BD1F1873BD9F1883BE1F1893BE9F1FE
:104080008A3BF1F18B3BF9F18C3B09F43FC020E016
:1040900034E444C022EE34E441C029EE34E43EC0AE
:1040A0002AEE34E43BC025EB34E438C026EB34E49C
:1040B00035C023EB34E432C024EB34E42FC027EBCB
:1040C00034E42CC02CEC34E429C02DEC34E426C0BC
:1040D00023E835E423C02AE835E420C022E935E4AA
:1040E0001DC024E935E41AC021E236E417C023E2FA
:1040F00036E414C024E236E411C025E236E40EC0F2
:1041000026E236E40BC027E236E408C02AE236E4B1
:1041100005C020E030E002C021E030E0C901089590
:104120008091C60180FF0BC06091120185E0689FFD
:10413000B001112475956795759567952BC081FF22
:1041400009C06091120185E0689FB0011124759546
:10415000679520C082FF07C06091120185E0689FCB
:10416000B001112417C09091C7019923D1F060913B
:104170001101961788F72091120185E0289F900180
:104180001124929FA001939F500D112470E0CA0149
:104190000E9446286038710540F46115710539F0B8
:1041A00002C065E070E0862F08958FE7089581E0F2
:1041B00008958091C60180FF08C06091100170E0F1
:1041C000759567957595679521C081FF06C06091CB
:1041D000100170E07595679519C082FF04C0609169
:1041E000100170E010C09091C7019923C1F0609157
:1041F0000F019617A0F780911001899FC00111242B
:1042000070E00E9446286038710528F46115710538
:1042100021F0862F08958FE7089581E0089561E0E9
:1042200070E0F4CF803F21F40E949020819504C07B
:10423000813F29F40E9490208093CA010895823F13
:1042400021F40E949020819504C0833F29F40E94AC
:1042500090208093C9010895893F19F40E94D920C4
:1042600005C08A3F31F40E94D92081958093CB010B
:1042700008958B3F21F40E94D920819504C08C3F82
:1042800029F40E94D9208093CC010895843F21F421
:104290008091C801816017C0853F21F48091C801D9
:1042A000826011C0863F21F48091C80184600BC0F8
:1042B000873F21F48091C801886005C0883F31F4B0
:1042C0008091C80180618093C80108958D3F21F4D9
:1042D0008091C60181600BC08E3F21F48091C601A0
:1042E000826005C08F3F29F48091C601846080936D
:1042F000C6010895803F39F48091CA0187FF6CC0E0
:104300001092CA0169C0813F29F48091CA01181630
:10431000BCF362C09091C901823F29F497FF5CC051
:104320001092C90159C0833F19F41916CCF354C037
:10433000893F41F48091CB0118160CF04DC01092CA
:10434000CB014AC08A3F29F48091CB0187FF44C04A
:10435000F6CF8B3F39F48091CC0187FF3DC010929E
:10436000CC013AC08C3F29F48091CC011816BCF3E3
:1043700033C0843F21F48091C8018E7F17C0853FF0
:1043800021F48091C8018D7F11C0863F21F4809176
:10439000C8018B7F0BC0873F21F48091C801877FC4
:1043A00005C0883F31F48091C8018F7E8093C80199
:1043B00013C08D3F21F48091C6018E7F0BC08E3FCC
:1043C00021F48091C6018D7F05C08F3F29F4809133
:1043D000C6018B7F8093C6018091C90181110EC0F7
:1043E0008091CA0181110AC08091CB01811106C060
:1043F0008091CC01811102C01092C7010895809173
:10440000BE0183FF7EC08DE595E00E94EE058091A0
:10441000C8011F928F9388E595E09F938F930E9428
:10442000870686E595E00E94EE058091C901282F58
:10443000082E000C330B3F938F9383E595E09F93F9
:104440008F930E94870681E595E00E94EE0580919A
:10445000CA01282F082E000C330B3F938F938EE454
:1044600095E09F938F930E9487068CE495E00E94CD
:10447000EE058091CB01282F082E000C330B3F93C3
:104480008F9389E495E09F938F930E94870687E43A
:1044900095E00E94EE058091CC01282F082E000C9B
:1044A000330B3F938F9384E495E09F938F930E9407
:1044B000870681E495E00E94EE058091C7011F9276
:1044C0008F938EE395E09F938F930E9487068CE3F2
:1044D00095E00E94EE058091C6011F928F9389E3BB
:1044E00095E09F938F930E94870686E395E00E9454
:1044F000EE058DB79EB74C960FB6F8949EBF0FBED3
:104500008DBF88EC91E00E9451120E94331F90935E
:10451000C5018093C40108951F93CF93DF938091C9
:10452000C4019091C5010E944B1FAC019091C7013D
:10453000992321F02091130130E006C0209114014D
:104540008AE0289F900111244217530708F485C080
:104550008091C901C091CA01D091CB011091CC01C9
:10456000811107C0C11175C0D11173C0111171C083
:1045700074C09F3F19F09F5F9093C701181624F4F1
:104580000E9490208093C9018091C90187FF05C0D6
:104590000E94902081958093C9011C1624F40E94EA
:1045A00090208093CA018091CA0187FF05C00E94B4
:1045B000902081958093CA016091C901662331F1F1
:1045C000C091CA01CC2311F1062E000C770B880B89
:1045D000990B0E94412723E333E343E35FE30E9407
:1045E000A5270E9409276093C9016C2FCC0F770B78
:1045F000880B990B0E94412723E333E343E35FE3F6
:104600000E94A5270E9409276093CA011D1624F461
:104610000E94D9208093CB018091CB0187FF05C0F8
:104620000E94D92081958093CB01111624F40E9419
:10463000D9208093CC018091CC0187FF05C00E94D6
:10464000D92081958093CC01DF91CF911F910C945B
:10465000FF219F3F09F08FCF97CFDF91CF911F911F
:104660000895E8ECF1E085E0DF011D928A95E9F715
:104670001092C7011092C601089580E897E00E9449
:10468000EE051F9281E08F931F9285E08F9382E366
:1046900097E09F938F930E9487060F900F900F9043
:1046A0000F900F900F9008958330E9F128F4813036
:1046B00061F0823009F10895853009F462C008F490
:1046C00049C0863009F474C0089580911401262FE2
:1046D00030E0280F311D2F3F310524F4680F60931F
:1046E000140103C08FEF80931401809114011F9275
:1046F0008F938BE696E072C080911301262F30E0F5
:10470000280F311D2F3F310524F4680F60931301EA
:1047100003C08FEF80931301809113011F928F9339
:1047200089E596E05BC080911201262F30E0280FCA
:10473000311D2F3F310524F4680F6093120103C02F
:104740008FEF80931201809112011F928F9386E464
:1047500096E044C080911101262F30E0280F311DD2
:104760002F3F310524F4680F6093110103C08FEFD0
:1047700080931101809111011F928F9381E396E044
:104780002DC080911001262F30E0280F311D2F3FC2
:10479000310524F4680F6093100103C08FEF8093FC
:1047A0001001809110011F928F9388E196E016C04E
:1047B00080910F01262F30E0280F311D2F3F31054A
:1047C00024F4680F60930F0103C08FEF80930F01F3
:1047D00080910F011F928F938DEF95E09F938F93A0
:1047E0000E9487060F900F900F900F9008958330CE
:1047F00081F128F4813059F08230D1F0089585306C
:1048000009F449C0B8F1863009F456C00895809182
:104810001401681720F4861B8093140102C01092C3
:104820001401809114011F928F938EEE95E054C075
:1048300080911301681720F4861B8093130102C036
:1048400010921301809113011F928F938CED95E0CC
:1048500043C080911201681720F4861B80931201D7
:1048600002C010921201809112011F928F9389EC65
:1048700095E032C080911101681720F4861B809367
:10488000110102C010921101809111011F928F93AA
:1048900084EB95E021C080911001681720F4861BFD
:1048A0008093100102C010921001809110011F929C
:1048B0008F938BE995E010C080910F01681720F469
:1048C000861B80930F0102C010920F0180910F018F
:1048D0001F928F9380E895E09F938F930E948706A5
:1048E0000F900F900F900F900895CF93C82F1F92A5
:1048F0008F9385E898E09F938F930E94870681E0CD
:1049000090E0A0E0B0E0BC01CD0104C0660F771FCD
:10491000881F991FCA95D2F70E94C11C0F900F9053
:104920000F900F90CF910C94BC18CF93873288F5DD
:104930008E3108F00BC18E3009F487C0D8F487306F
:1049400009F460C08B3009F44FC0863009F002C111
:104950008091BE01817F8E7F8093BE018AE898E0BE
:104960000E94EE058EE29BE00E94EE0581E08093BE
:10497000CE0146C0863109F4B0C020F4803109F47C
:104980007AC0E8C0893109F491C08B3109F449C07B
:10499000E1C0883349F150F4893209F4D5C0853338
:1049A00009F4D2C0873209F0D5C0CEC0833409F4EF
:1049B000CBC028F48A3308F4CDC08953C8C08834EA
:1049C00009F0C8C00E94BC188DE19BE00E94EE0572
:1049D0002FEF83ED90E3215080409040E1F700C03D
:1049E00000000E949A1F0CC081EB98E041C084E057
:1049F0009BE00E94EE058091BE0181608093BE0124
:104A0000C1E0ADC08091BE01C82FC17080FFEFCF63
:104A100080E19BE00E94EE058091BE01817F8E7F48
:104A20003FC09091BE0191FBCC27C0F981E0C8271F
:104A3000892FC0FB81F98093BE01CC2319F087EF49
:104A40009AE029C089EE9AE013C09091BE0192FBD2
:104A5000CC27C0F981E0C827892FC0FB82F9809359
:104A6000BE01CC2319F08AED9AE015C08AEC9AE0D9
:104A70000E94EE05C5CF9091BE0193FBCC27C0F9F3
:104A800081E0C827892FC0FB83F98093BE01CC2326
:104A900051F08EEB9AE00E94EE058091BE0181609C
:104AA0008093BE015CC081EB9AE0E2CF82EA9AE09B
:104AB0000E94EE058FE79AE00E94EE058AE39AE0F5
:104AC0000E94EE0583E19AE00E94EE058DED99E0EB
:104AD0000E94EE058FEA99E0CBCF81EA99E00E942F
:104AE000EE050E94FC111F928F9387E899E09F9337
:104AF0008F930E94870680910C011F928F9380E70D
:104B000099E09F938F930E94870680915B011F928B
:104B10008F938DE599E09F938F930E9487060E9463
:104B20003F1F9F938F937F936F9386E499E09F93AA
:104B30008F930E9487068DB79EB742960FB6F89462
:104B40009EBF0FBE8DBF5CCF80E001C08D510E9423
:104B5000752456CF84E499E00E94EE05C0E08C2FC6
:104B6000CF91089580E0089580E00895CF93C82FF5
:104B70008091CE01813069F020F0823009F449C083
:104B800040C167E08FE00E948313882309F43FC18E
:104B900006C067E08FE00E948313882361F08C2FAA
:104BA0000E94B225811104C08C2F0E9495242FC031
:104BB00081E090E02CC08C2F0E94B425811126C08A
:104BC000C431E1F070F4CB3081F0C031D1F40E94F7
:104BD0003D238DE798E00E94EE0582E08093CE01B0
:104BE00015C0C93259F0C83361F48AE898E00E94D0
:104BF000EE0581E898E00E94EE0508C01092CE0113
:104C000004C18BE798E00E94EE05FFC081E081704F
:104C1000FEC0C43228F5CE3108F0C1C0CB30A1F1BE
:104C2000D0F4C73009F0D3C08EE18093140182E341
:104C3000809313018AE08093120184E18093110133
:104C400088E08093100188E280930F0181E297E071
:104C50000E94EE05BFC0C33149F1C431C1F0B7C0F5
:104C6000CB3409F4A9C028F4C93289F0C83361F003
:104C7000AEC0C13509F49EC0C23509F499C0CE3426
:104C800009F0A5C06AE09EC00E943D23A3C08091A8
:104C9000CD01882319F01092CD019CC08EE297E0DF
:104CA0000E94EE0581E08093CE01B1C088E097E0DC
:104CB0000E94EE0586EF96E00E94EE0580911401B9
:104CC0001F928F9383EF96E09F938F930E948706A6
:104CD00081EF96E00E94EE058FED96E00E94EE05D2
:104CE000809113011F928F938CED96E09F938F9389
:104CF0000E9487068AED96E00E94EE058BEC96E016
:104D00000E94EE05809112011F928F9388EC96E02D
:104D10009F938F930E94870686EC96E00E94EE0593
:104D200085EB96E00E94EE05809111011F928F9312
:104D300082EB96E09F938F930E94870680EB96E02C
:104D40000E94EE058BE996E00E94EE05809110012D
:104D50001F928F9388E996E09F938F930E94870616
:104D600086E996E00E94EE058FE796E00E94EE0548
:104D700080910F011F928F938CE796E09F938F9302
:104D80000E9487068AE796E00E94EE058DB79EB7DF
:104D900048960FB6F8949EBF0FBE8DBF1BC0CE5174
:104DA000EC2FF0E0E65DFE4F80818093CD0112C0D4
:104DB00061E003C061E006C06AE08091CD010E941D
:104DC000542308C08091CD010E94F72303C08FE1D6
:104DD00097E013C08091CD01882369F01F928F93D3
:104DE00089E197E09F938F930E9487060F900F9021
:104DF0000F900F9004C086E197E00E94EE0581E0DD
:104E000006C01092CE0180E002C080E000CFCF91BA
:104E100008950E9410276894B1110C949F2708955B
:104E20000E94842788F09F5798F0B92F9927B7518F
:104E3000B0F0E1F0660F771F881F991F1AF0BA953E
:104E4000C9F714C0B13091F00E949E27B1E00895D7
:104E50000C949E27672F782F8827B85F39F0B93FC9
:104E6000CCF3869577956795B395D9F73EF49095F1
:104E70008095709561957F4F8F4F9F4F0895E8946F
:104E800009C097FB3EF490958095709561957F4F92
:104E90008F4F9F4F9923A9F0F92F96E9BB27939540
:104EA000F695879577956795B795F111F8CFFAF450
:104EB000BB0F11F460FF1BC06F5F7F4F8F4F9F4F81
:104EC00016C0882311F096E911C0772321F09EE8DF
:104ED000872F762F05C0662371F096E8862F70E045
:104EE00060E02AF09A95660F771F881FDAF7880F1F
:104EF0009695879597F9089557FD9058440F551F3B
:104F000059F05F3F71F04795880F97FB991F61F04B
:104F10009F3F79F087950895121613061406551FC2
:104F2000F2CF4695F1DF08C0161617061806991F2E
:104F3000F1CF86957105610508940895E894BB2723
:104F400066277727CB0197F908950E94B8270C941C
:104F500029280E941B2838F00E94222820F095233F
:104F600011F00C9412280C94182811240C949F27EB
:104F70000E947C2770F3959FC1F3950F50E0551F59
:104F8000629FF001729FBB27F00DB11D639FAA279E
:104F9000F00DB11DAA1F649F6627B00DA11D661FED
:104FA000829F2227B00DA11D621F739FB00DA11D0E
:104FB000621F839FA00D611D221F749F3327A00DC8
:104FC000611D231F849F600D211D822F762F6A2F64
:104FD00011249F5750409AF0F1F088234AF0EE0FC9
:104FE000FF1FBB1F661F771F881F91505040A9F7F6
:104FF0009E3F510580F00C9412280C949F275F3F30
:10500000E4F3983ED4F3869577956795B795F79531
:10501000E7959F5FC1F7FE2B880F911D96958795A9
:1050200097F9089597F99F6780E870E060E0089528
:105030009FEF80EC089500240A94161617061806B0
:105040000906089500240A9412161306140605068C
:105050000895092E0394000C11F4882352F0BB0F1D
:1050600040F4BF2B11F460FF04C06F5F7F4F8F4F80
:105070009F4F0895991B79E004C0991F961708F077
:10508000961B881F7A95C9F78095089597FB072E80
:1050900016F4009407D077FD09D00E94602807FC21
:1050A00005D03EF4909581959F4F08957095619538
:1050B0007F4F0895EE0FFF1F0590F491E02D0994A6
:1050C000AA1BBB1B51E107C0AA1FBB1FA617B7072E
:1050D00010F0A61BB70B881F991F5A95A9F780954A
:0C50E0009095BC01CD010895F894FFCF1D
:1050EC00FFFF610A520B2F0BFB0AC70A01B4012800
:1050FC0008140A321E404D36229E0451041B04F93A
:10510C000385039E03B703D00300010203040506C5
:04511C000708090077
:00000001FF
