:100000000C947A050C94C1050C94C1050C94C1059F
:100010000C94C1050C94C1050C94C1050C94C10548
:100020000C94C1050C94C1050C94C1050C94330FBC
:100030000C94E20F0C94901E0C94C1050C94C10515
:100040000C94C1050C94C1050C94C1050C94041FBB
:100050000C94C1050C94C1050C94C1050C94C10508
:100060000C94C1050C94C1050C94C1050C94C105F8
:100070000C94C1054F1071105F1171105F11B61013
:10008000D9105F112E1141113815381566156615F6
:10009000C31501161A181A181A161A181B171B1747
:1000A000EE171A181A18051835A131A104160709F8
:1000B0000B0A1D1B06196405141A08151C171E1FB0
:1000C000202123222E26242D25273012182F0C1311
:1000D000280F0D340E33C136381110372B2CC02A9F
:1000E0005829E0E3E182E2504F5152006C636555BC
:1000F0006D570053A9AAA8545800566D6E2E625928
:100100005A5B5C5D5E5F6F60618987853E3F403C06
:100110004142914490466B47004365450048494A37
:100120004B4C3D4D3B4E3AE5E6E40000AAA9A80938
:100130000B0A1D1B06196405141A08151C173A3BF7
:100140003C3D3F3E454240444143494718524648A2
:10015000284B0D4F4A50C14D5111104E2B2CC04C05
:100160005835E0E3E182E24A4D4E4B006CF565F60E
:100170006DF90053A9AAA8F5F600FA6D6EF4F4FB28
:10018000F1FCF2F1F3FA6FF0F98987853E3F403CCC
:100190004142914490466B47004365450048494AB7
:1001A0004B4C3D4D3B4E3AE5E6E400006164625F36
:1001B000686F73745F6B62645F726563763A204543
:1001C00052524F52282564290A000A00253034581B
:1001D000006164625F686F73745F6B62645F726515
:1001E00063763A20004552524F523A206D65646959
:1001F00061206B6579300A004552524F523A206DAA
:1002000065646961206B6579310A005D0A002564C7
:100210000020002564007C00253032580020002595
:10022000303258006164625F6D6F75736520726172
:10023000773A205B000A0025303136620061646243
:100240005F686F73745F6D6F7573655F72656376FA
:100250003A2000646562756720656E61626C656452
:100260002E0A005363616E3A20616464723A256419
:100270002C20726567333A253034580A0041667481
:10028000657220696E69743A0A00466F756E643A49
:10029000206D65646961206B6579730A0053636141
:1002A0006E3A20616464723A25642C20726567336B
:1002B0003A253034580A004265666F726520696ECF
:1002C00069743A0A004B6579626F617264207374D5
:1002D0006172742E0A0055534220636F6E6669671F
:1002E000757265642E0A000D0A696E69740A002E23
:1002F0000341004400420020006B00650079006269
:10030000006F00610072006400200063006F006EE7
:100310000076006500720074006500720000000E37
:100320000374002E006D002E006B002E00000004F0
:1003300003090409027400040100A032090400004A
:1003400001030101000921110100012240000705FC
:10035000810308000A0904010001030102000921C8
:1003600011010001224D000705820308000A09045B
:1003700002000103000000092111010001223600E2
:100380000705830308000A090403000203000000B4
:100390000921110100012222000705840320000128
:1003A000070504032000011201100100000008ED00
:1003B000FEDB0A0101010200010631FF0974A101FF
:1003C0000975150026FF009520750881020976152C
:1003D0000026FF00952075089102C005010980A143
:1003E00001850216810026B7001A81002AB7007520
:1003F0001095018100C0050C0901A10185031601BA
:1004000000269C021A01002A9C02751095018100A9
:10041000C005010902A1010901A10005091901296D
:10042000051500250195057501810295017503816A
:10043000010501093009311581257F950275088173
:100440000609381581257F950175088106050C0A76
:1004500038021581257F950175088106C0C0050108
:100460000906A101050719E029E7150025019508EE
:100470007501810295017508810105081901290599
:100480009505750191029501750391010507190004
:1004900029FF150026FF00950675088100C0636FCF
:1004A0006E73756D65723A20253034580A00737981
:1004B0007374656D3A20253034580A000A002530DF
:1004C000325820006B6579626F6172643A20004C8B
:1004D00045443A20253032580A00253032583A2017
:1004E0002530386225730A00722F63203031323391
:1004F000343536370A00290A002575002F00257586
:10050000005D28002564002000256400200025648B
:100510000020002564007C0025303258006D6F7586
:1005200073656B6579205B62746E7C7820792076C8
:1005300020685D287265702F61636C293A205B002A
:100540006D6B5F776865656C5F74696D655F746F0F
:100550005F6D6178203D2025640A006D6B5F7768D0
:1005600065656C5F6D61785F7370656564203D20C3
:1005700025640A006D6B5F74696D655F746F5F6DF4
:100580006178203D2025640A006D6B5F6D61785FA6
:100590007370656564203D2025640A006D6B5F699A
:1005A0006E74657276616C203D2025640A006D6B67
:1005B0005F64656C6179203D2025640A006D6B5F86
:1005C000776865656C5F74696D655F746F5F6D6199
:1005D00078203D2025640A006D6B5F776865656C47
:1005E0005F6D61785F7370656564203D2025640AE6
:1005F000006D6B5F74696D655F746F5F6D6178200E
:100600003D2025640A006D6B5F6D61785F737065D6
:100610006564203D2025640A006D6B5F696E74651A
:100620007276616C203D2025640A006D6B5F646505
:100630006C6179203D2025640A000A00257500368A
:100640003A20776865656C5F74696D655F746F5F8C
:100650006D61783A20000A00257500353A207768E8
:1006600065656C5F6D61785F73706565643A2000E5
:100670000A00257500343A2074696D655F746F5FF8
:100680006D61783A20000A00257500333A206D61CB
:10069000785F73706565643A20000A002575003242
:1006A0003A20696E74657276616C286D73293A2000
:1006B000000A00257500313A2064656C6179282AAA
:1006C00031306D73293A20000A092D2056616C756E
:1006D0006573202D0A004D3E004D25643E20003FED
:1006E000007365742064656661756C740A00433E2E
:1006F000200077686572652064656C74613A2063D8
:100700007572736F723D25642C20776865656C3D4A
:1007100025640A53656520687474703A2F2F656EDE
:100720002E77696B6970656469612E6F72672F77C8
:10073000696B692F4D6F7573655F6B6579730A001F
:100740000A092D204D6F7573656B6579202D0A455B
:1007500053432F713A09717569740A313A09646516
:100760006C6179282A31306D73290A323A09696E31
:1007700074657276616C286D73290A333A096D616C
:10078000785F73706565640A343A0974696D655FF2
:10079000746F5F6D61780A353A09776865656C5FDB
:1007A0006D61785F73706565640A363A09776865CC
:1007B000656C5F74696D655F746F5F6D61780A0A5F
:1007C000703A097072696E742076616C7565730A8F
:1007D000643A097365742064656661756C74730AA4
:1007E00075703A092B310A646F776E3A092D310A18
:1007F000706775703A092B31300A7067646F776ED5
:100800003A092D31300A0A7370656564203D206411
:10081000656C7461202A206D61785F737065656412
:10082000202A2028726570656174202F2074696DFC
:10083000655F746F5F6D6178290A003F004D3E204F
:1008400000433E20004C25640A000A092D20436F16
:100850006E736F6C65202D0A4553432F713A0971F1
:100860007569740A6D3A096D6F7573656B65790A00
:10087000000A092D204D61676963202D0A643A0939
:1008800064656275670A783A096465627567206D08
:1008900061747269780A6B3A096465627567206BE6
:1008A0006579626F6172640A6D3A096465627567A1
:1008B000206D6F7573650A763A0976657273696F94
:1008C0006E0A733A097374617475730A633A096343
:1008D0006F6E736F6C65206D6F64650A302D343AEE
:1008E000096C61796572302D34284631302D4634DB
:1008F000290A506175733A09626F6F746C6F616495
:1009000065720A003F0074696D65725F72656164AB
:10091000333228293A202530346C580A006B657927
:10092000626F6172645F69646C653A2025580A00E1
:100930006B6579626F6172645F70726F746F636F01
:100940006C3A2025580A00686F73745F6B65796292
:100950006F6172645F6C65647328293A2025580AB8
:10096000000A092D20537461747573202D0A004705
:1009700043433A20342E392E32204156522D4C49D1
:1009800042433A20312E382E3073766E2041565233
:100990005F415243483A2061767233350A004F5026
:1009A00054494F4E533A204C554641204D4F5553D4
:1009B000454B45592045585452414B455920434FCA
:1009C0004E534F4C4520434F4D4D414E4420343003
:1009D00039360A004255494C443A2031393732629F
:1009E0003430202831343A31383A3436204D61726F
:1009F0002032352032303137290A005649443A2016
:100A000030784645454428742E6D2E6B2E29205093
:100A100049443A2030783041444228414442206BD6
:100A20006579626F61726420636F6E76657274655A
:100A30007229205645523A203078303130310A0040
:100A4000444553433A20636F6E7665727420414487
:100A500042206B6579626F61726420746F20555318
:100A6000420A000A092D2056657273696F6E202DA7
:100A70000A000A6D6F7573653A206F66660A000A90
:100A80006D6F7573653A206F6E0A000A6B65796247
:100A90006F6172643A206F66660A000A6B6579625C
:100AA0006F6172643A206F6E0A000A6D6174726938
:100AB000783A206F66660A000A6D61747269783A46
:100AC000206F6E0A000A64656275673A206F6E0ACD
:100AD000000A64656275673A206F66660A000A0A52
:100AE000626F6F746C6F616465722E2E2E200043EE
:100AF0003E20000011241FBECFEFD4E0DEBFCDBFEB
:100B000004B603FE27C08091DC019091DD01A09125
:100B1000DE01B091DF018730904BA740B04BD1F49C
:100B20001092DC011092DD011092DE011092DF01C3
:100B300014BE84B7877F84BF0FB6F894A8958091C0
:100B40006000886180936000109260000FBEE0E05A
:100B5000F8E3099511E0A0E0B1E0ECE4F0E502C0B3
:100B600005900D92A433B107D9F721E0A4E3B1E0D9
:100B700001C01D92AC3DB207E1F70E947F0C0C94BE
:100B800024280C940000FF93EF93E0913401F0913E
:100B90003501309709F00995EF91FF910895FC0117
:100BA0008591803011F0EFDFFBCF0895FF27E0E261
:100BB00030E247FF0CC0419597FF09C0EDE2609518
:100BC000709580959095611D711D811D911D27FF68
:100BD00002C0219530E350E2AA27660F771F881FD5
:100BE000991FAA1FA41710F0A41B63955A95A9F783
:100BF000AA3008F0A95FA05DAF93F3956115710568
:100C00008105910541F7ED3211F4EF93F395F21759
:100C100018F43F93F395FBCF8F91B5DFFA95E1F789
:100C20000895E991F9918591803021F0853219F08C
:100C3000AADFF9CF089520E0E89455915532C1F329
:100C4000503311F4689455915A3348F4505390F34B
:100C5000220F022E220F220F200D250FF4CF0EF4AB
:100C6000219589919991533619F3533729F15335C9
:100C700059F1BC0188279927E8945C3621F48991C1
:100C8000999168945591543639F446EF7EF077FF88
:100C90000DC08FEF9FEF0AC055374AE039F0583545
:100CA00040E121F0523642E009F00895FF93EF93BE
:100CB0007DDFEF91FF91B7CFFF93EF93FC0181911F
:100CC0008030B9F360DFFBCFFF93EF9368DFF1CFA4
:100CD000DF93CF93CDB7DEB72596A3DFCF91DF911A
:100CE0000895282F2770E82FE695E695E695EF7092
:100CF000F0E0E95CFE4F87FF0AC081E090E001C0B0
:100D0000880F2A95EAF780959081892308C081E0B1
:100D100090E001C0880F2A95EAF79081892B8083A3
:100D200008950F931F93CF93DF93569A5E9A0E9474
:100D300078092FEF87EA91E6215080409040E1F753
:100D400000C0000087EB92E09F938F930E9468069B
:100D50000F900F90C1E0D0E00DE912E063E08C2F1E
:100D60000E947C09009771F09F938F93DF93CF933C
:100D70001F930F930E9468060F900F900F900F9093
:100D80000F900F909FEF29EF80E09150204080401E
:100D9000E1F700C000002196C031D105F9F663E00B
:100DA00082E00E947C0999278131910511F174F448
:100DB00087309105F1F024F404970297F0F419C0FC
:100DC00089309105B1F00D97C1F413C08D319105B3
:100DD00081F034F48431910561F0499771F409C0D0
:100DE000843C910531F0873C910519F0813C9105D7
:100DF00021F481E080934C0102C010924C0163E029
:100E000087E00E947C0991E0823009F090E09093A5
:100E10004D01992341F08AE892E09F938F930E94BD
:100E200068060F900F9023E042E063E082E00E94AA
:100E3000FC098DE792E09F938F930E9468060F90C4
:100E40000F90C1E0D0E003E612E063E08C2F0E9437
:100E50007C09009771F09F938F93DF93CF931F933B
:100E60000F930E9468060F900F900F900F900F90B5
:100E70000F908FEF99EF20E0815090402040E1F7F4
:100E800000C000002196C031D105F9F6E7E3F1E09A
:100E900080E18E0F11928E13FDCF0E947C110E9473
:100EA0001F098091BE0181608093BE0183E592E0BD
:100EB0000E94CF05569A5E98DF91CF911F910F91B6
:100EC0000895CF93DF938FE79BEB0197F1F700C075
:100ED00000000E94F809EC01009711F481E0BDC008
:100EE00097FD05C080914701816080934701D7FF3E
:100EF00005C0809147018E7F80934701ED2FFF272A
:100F0000EF73FF27CE018F739927C6FF02C080546D
:100F10009109D6FF02C0E054F109A09136010A2ED2
:100F2000000CBB0BBD010E94D92781382FEF92071F
:100F300014F481E89FEF22273327281B390B21382F
:100F40008FEF380714F421E83FEF219520934801F3
:100F5000CF01BD010E94D92781382FEF920714F4E9
:100F600081E89FEF91958195910981382FEF920744
:100F700014F481E89FEF8195809349018091BE012F
:100F800083FF60C08DE392E00E94CF05DF93CF9393
:100F900087E392E09F938F930E94680685E392E037
:100FA0000E94CF0584E292E00E94CF058091360135
:100FB000282F082E000C330B3F938F938FE192E084
:100FC0009F938F930E9468068DE192E00E94CF0567
:100FD000809147011F928F9388E192E09F938F93B6
:100FE0000E94680686E192E00E94CF058091480148
:100FF000282F082E000C330B3F938F9383E192E050
:101000009F938F930E94680681E192E00E94CF0532
:1010100080914901282F082E000C330B3F938F93AA
:101020008EE092E09F938F930E9468068BE092E09F
:101030000E94CF058DB79EB744960FB6F8949EBF19
:101040000FBE8DBF87E491E00E94D11180913601DF
:1010500091E088300CF090E0890F80933601DF91A9
:10106000CF9108951F93CF93DF93C0910001D0914A
:1010700001018FEF9FEF9093010180930001CF3F1B
:101080008FEFD80709F06AC08FE79BEB0197F1F764
:1010900000C0000082E00E94F509EC01892B09F0F4
:1010A0005DC080914D01882309F458C087E00E94FB
:1010B000F509009709F452C09C012F77332722309D
:1010C0003105A1F048F42115310569F021303105D1
:1010D00099F480788A641AC02330310551F02F3793
:1010E0003105A1F009C08078826410C080788964DD
:1010F0000DC0807888640AC088EF91E09F938F9339
:101100000E9468060F900F9081E18FC0292F33272E
:101110002F7733272130310579F050F02230310517
:1011200079F02330310581F4EC01D078D86416C011
:10113000EC01D078D26412C0EC01D078DA640EC031
:10114000EC01D078D9640AC085EE91E09F938F932B
:101150000E9468060F900F9080E167C08091BE01E9
:1011600081FF18C0209709F45DC081ED91E00E94D5
:10117000CF05DF93CF938CEC91E09F938F930E94E8
:1011800068068AEC91E00E94CF050F900F900F90B7
:101190000F9003C0209709F445C0CF379FE7D907C8
:1011A00011F48FE705C0CF3F8FEFD80721F48FEF01
:1011B0000E94710639C02D2F3327822F1C2F2F3FFD
:1011C000310581F4DF93CF938CEA91E09F938F9365
:1011D0000E9468060E9491060F900F900F900F904A
:1011E0008C2F23C090914C01992381F0A9014F7756
:1011F00055274233510521F42078822F8A6006C09A
:101200004A30510519F42078822F82630E947106BA
:101210001F3F51F0DC2FCC27CF6FD0930101C0933B
:10122000000102C080E001C081E0DF91CF911F91F9
:101230000895E82FF0E0E95CFE4F80810895682F63
:10124000609582E00C94350A509A83E091E0019712
:10125000F1F700C0000050989AEB9A95F1F700C0A2
:101260000895509A8AEB8A95F1F700C0509883E070
:1012700091E00197F1F700C000000895EF92FF920E
:101280000F931F93CF93DF93C0E0D0E090E8E92E57
:10129000F12C082F10E0C7010C2E02C09595879500
:1012A0000A94E2F780239123892B19F00E943109D7
:1012B00002C00E9424092196C830D10561F7DF9150
:1012C000CF911F910F91FF90EF900895489B06C01A
:1012D00023E02A95F1F700000197C1F70895489996
:1012E00006C023E02A95F1F700000197C1F70895A1
:1012F0005898509808950895CF92DF92EF92FF92F8
:101300000F931F93CF93DF9300D0CDB7DEB7F89440
:10131000509AE3EFFBE03197F1F700C000006A83D9
:1013200089830E9431096A816C6089818295807FFE
:10133000862B0E943E090E94240984EF91E00E94BE
:101340006F09892B21F4789482EE9FEF43C084EFDC
:1013500091E00E946609009711F478943BC011E176
:10136000C12CD12C02E882E890E00E946F097C0138
:10137000882351F199270E946609882329F1CC0C12
:10138000DD1C902F9E19E81A9E1518F46894C0F879
:1013900006C0113121F478948CEE9FEF1BC01150E0
:1013A00011F78FE591E00E946F09892B21F4789461
:1013B0008BEE9FEF0FC08BE590E00E946609892BB2
:1013C000B1F77894C60106C07894812F90E091958A
:1013D000819591090F900F90DF91CF911F910F91FF
:1013E000FF90EF90DF90CF90089560E00C947C091F
:1013F00060E083E00C947C091F93CF93DF9300D0CF
:101400001F92CDB7DEB7182FF894509A83EF9BE068
:101410000197F1F700C000002B834A8369830E9483
:1014200031096981862F88601295107F812B0E9477
:101430003E090E9424098FE193E00197F1F700C073
:1014400000000E9431094A81842F0E943E092B81AD
:10145000822F0E943E090E94240978940F900F90D9
:101460000F90DF91CF911F910895262F277040E0B4
:1014700062E00C94FC0980915A0108959FB7F8949A
:10148000109251019FBF9091D301943009F057C041
:101490009091E9009F703091EC00232F217030FD76
:1014A00020E8922B24E02093E9002091EB0020FF1C
:1014B00043C02091EE0027FF3FC020914E01222320
:1014C00021F02091E80025FF37C010924E0126E060
:1014D0003091E80035FD15C03091D301343061F50D
:1014E0003091EB0035FD28C0215021F481E080933C
:1014F0004E0122C0EFE9FFE03197F1F700C0000094
:10150000E7CF8093F1008091E80085FD0AC08091CB
:10151000E80080FFFCCF8091E8008E778093E800A0
:1015200006C08FB7F89421E0209351018FBF9F70C0
:101530009093E90080E008959F709093E9008FEF09
:101540000895CF93DF9300D01F92CDB7DEB79C01F3
:101550008091D301843019F593E099833B832A83EA
:101560009093E9008FEF9091E800815095FD06C0BF
:1015700095ED9A95F1F700008111F5CF8091E80083
:1015800085FF0DC040E050E063E070E0CE010196C1
:101590000E94410D8091E8008E778093E8000F90C3
:1015A0000F900F90DF91CF910895CF93DF9300D0EC
:1015B0001F92CDB7DEB72091D301243021F522E070
:1015C00029839B838A8383E08093E9008FEF909146
:1015D000E800815095FD06C095ED9A95F1F7000061
:1015E0008111F5CF8091E80085FF0DC040E050E00B
:1015F00063E070E0CE0101960E94410D8091E80009
:101600008E778093E8000F900F900F90DF91CF912D
:1016100008952091D3012430F1F422E02093E900D1
:101620002FEF3091E800215035FD06C035ED3A9599
:10163000F1F700002111F5CF2091E80025FF0BC044
:1016400040E050E065E070E00E94410D8091E800CC
:101650008E778093E8000895CF93DF932091D30194
:10166000243039F521E02093E9002FEF3091E80094
:10167000215035FD06C035ED3A95F1F700002111F6
:10168000F5CF2091E80025FF14C0EC0140E050E0C8
:1016900068E070E00E94410D8091E8008E778093B1
:1016A000E80088E0FE01A2E5B1E001900D928A9584
:1016B000E1F7DF91CF910895089520914F012F5FB9
:1016C000822F62E30E94EA27992319F020934F01A9
:1016D000089510924F0180915101882371F18091FA
:1016E000D301843041F58091E9008F702091EC00A6
:1016F000922F917020FD90E8892B94E09093E9005F
:101700009091EB0090FF14C09091EE0097FF10C0F5
:101710009091E80095FF03C01092F100F9CF9091ED
:10172000E80090FF05C09091E8009E779093E80054
:101730008F708093E90010925101089542E061ECAE
:1017400081E00E944A0E42E061EC82E00E944A0E73
:1017500042E061EC83E00E944A0E42E261EC84E0E8
:101760000C944A0E8091D501833009F453C030F4B3
:10177000813071F0823009F48CC008958A3009F408
:1017800078C08B3009F45EC0893009F09AC020C05F
:101790008091D401813A09F094C08091E800877F5C
:1017A0008093E8008091D8019091D901892B21F490
:1017B00068E082E591E003C060E080E090E070E0E6
:1017C0000E948C0D8091E8008B778093E80008954B
:1017D0008091D401813209F074C08091D801909138
:1017E000D901892B09F06DC08091E800877F809333
:1017F000E8008091E80082FD05C08091D30181114D
:10180000F8CF5FC08091F10080935A018091E80089
:101810008B7753C08091D401813A09F052C08091F6
:10182000D8019091D901892B09F04BC08091E80033
:10183000877F8093E8008091E80080FFFCCF809153
:101840000C0136C08091D4018132D9F58091D80144
:101850009091D901892BA9F58091E800877F809329
:10186000E8000E947F0E8091D60180930C010C94B9
:101870003C188091D401813221F58091E800877F66
:101880008093E8000E947F0E8091D70180935B01D6
:1018900008958091D401813AA1F48091E800877F76
:1018A0008093E8008091E80080FFFCCF80915B018D
:1018B0008093F1008091E8008E778093E8000C948B
:1018C0007F0E08950895089580915A0180935001E4
:1018D00010925A0180E00E941F090E9401130C948B
:1018E0003C180C94640C0E944F1E8091D1018823F7
:1018F00029F00E94781E81110C942B0D089584B755
:10190000877F84BF0FB6F894A895809160008861A6
:1019100080936000109260000FBE90E080E80FB6E8
:10192000F89480936100909361000FBE8EE39AE07B
:101930000E94241E87EE92E00E94CF050E94620C56
:101940000E9438120E94D00E0E94230F8091E20064
:1019500084608093E20078948091D3018430E1F731
:1019600086ED92E00E94CF050E943A1282E091E05B
:101970000E94771185EC92E00E94CF050E94630CD3
:101980008091D301853019F40E94730CF9CF0E9425
:101990004012F6CF0E948C1E8091500180935A0114
:1019A00008950C94CA0C292F332723303105C9F030
:1019B00064F42130310581F02230310509F043C053
:1019C00084E790E023E333E042C021323105F1F0B7
:1019D0002232310541F137C082E190E027EA33E05D
:1019E00036C099278130910541F08230910541F050
:1019F000892B49F5EFE2F3E005C0EFE1F3E002C027
:101A0000EFEEF2E0849190E09F0121C06430D8F4C1
:101A1000E62FF0E0EE0FFF1FEF5DFE4F20813181DA
:101A200089E090E014C0643070F470E0FB01EE0FC8
:101A3000FF1FE75EFE4F20813181FB01EB5EFE4F11
:101A4000808190E004C080E090E020E030E0FA0186
:101A500031832083089584E089BD86E089BD09B47F
:101A600000FEFDCF8091D8008F7D8093D8008091BB
:101A7000E00082608093E0008091E00081FDFCCF77
:101A80000895CF92DF92EF92FF920F931F93CF931F
:101A9000DF93EC018B016A010E949E0E811133C01D
:101AA000C114D10439F0F60180819181081B190B12
:101AB000C80FD91FE12CF12C0115110519F18091E6
:101AC000E80085FD16C08091E8008E778093E800DD
:101AD000C114D10449F0F60180819181E80EF91E0C
:101AE000F182E08285E00FC00E949E0E882321F3E0
:101AF0000AC089918093F10001501109FFEFEF1A9C
:101B0000FF0ADACF80E0DF91CF911F910F91FF9014
:101B1000EF90DF90CF9008952091DA013091DB01B2
:101B20002617370748F06115710539F42091E80050
:101B30002E772093E80001C0B90140E061157105DE
:101B400091F12091D301222309F440C0253009F4FA
:101B50003FC02091E80023FD3DC02091E80022FD18
:101B60002FC02091E80020FFE9CF2091F20030E063
:101B7000FC01CF016115710559F02830310540F4A1
:101B800081918093F100615071092F5F3F4FF1CF38
:101B900041E02830310509F040E02091E8002E773F
:101BA0002093E800CBCF4111CCCF0AC08091D30164
:101BB000882361F0853061F08091E80083FD0AC0E0
:101BC0008091E80082FFF2CF80E0089582E00895DE
:101BD00083E0089581E008952091DA013091DB01DE
:101BE0002617370748F06115710539F42091E80090
:101BF0002E772093E80001C0B901FC0120E06115B7
:101C0000710579F18091D301882309F43DC08530B5
:101C100009F43CC08091E80083FD3AC08091E8005F
:101C200082FD2CC08091E80080FFE9CF8091F20016
:101C300090E06115710559F08830910540F42491C8
:101C40002093F1003196615071090196F2CF21E0A5
:101C5000089709F020E08091E8008E778093E800F3
:101C6000CECF2111CFCF0AC08091D301882361F05C
:101C7000853061F08091E80083FD0AC08091E80022
:101C800082FFF2CF80E0089582E0089583E0089516
:101C900081E00895982F953058F59093E9009817B2
:101CA00039F07091EC002091ED005091F00003C0EC
:101CB000242F762F50E021FF19C03091EB003E7F9A
:101CC0003093EB003091ED003D7F3093ED0030918B
:101CD000EB0031603093EB007093EC002093ED004B
:101CE0005093F0002091EE0027FF07C09F5FD3CFF5
:101CF0008F708093E90081E0089580E008958091DD
:101D0000D40187FF11C08091E80082FD05C0809159
:101D1000D3018111F8CF11C08091E8008B770BC0FF
:101D20008091D301882349F08091E80080FFF8CFAB
:101D30008091E8008E778093E80008952091E40078
:101D40003091E50095E64091EC00842F817040FFD2
:101D500022C08091E80080FD1CC08091D3018823BF
:101D600091F0853091F08091EB0085FD10C040919D
:101D7000E4005091E5004217530729F39A0191506E
:101D800011F784E0089582E0089583E0089581E0EA
:101D9000089580E008954091E80042FFDECF089565
:101DA0000E942D0F0E94300FE0EEF0E080818160F4
:101DB0008083E8EDF0E080818F77808319BCE3E6D3
:101DC000F0E08081816080831092D20108950E94AA
:101DD0002D0F0E94300F8091D8008F778093D8000C
:101DE0008091D80080688093D8008091D8008F7D42
:101DF0008093D80084E089BD86E089BD09B400FEE7
:101E0000FDCF1092D3011092CF011092D101109208
:101E1000D00142E060E080E00E944A0E8091E10043
:101E20008E7F8093E1008091E20081608093E200E8
:101E30008091E20088608093E2008091E0008E7FD4
:101E40008093E0000895E3E6F0E080818E7F808358
:101E500081E08093D2010C94E70E1092E200089585
:101E60001092E10008951F920F920FB60F92112465
:101E70002F933F934F935F936F937F938F939F9392
:101E8000AF93BF93EF93FF938091E10082FF0BC06C
:101E90008091E20082FF07C08091E1008B7F8093F8
:101EA000E1000E945D0B8091E10080FF19C08091EC
:101EB000E20080FF15C08091E2008E7F8093E200F7
:101EC0008091E20080618093E2008091D80080627E
:101ED0008093D80019BC85E08093D3010E94710CD7
:101EE0008091E10084FF30C08091E20084FF2CC02B
:101EF00084E089BD86E089BD09B400FEFDCF8091F4
:101F0000D8008F7D8093D8008091E1008F7E8093F0
:101F1000E1008091E2008F7E8093E2008091E200F8
:101F200081608093E2008091CF01882311F084E0EA
:101F300007C08091E30087FD02C081E001C083E01B
:101F40008093D3010E94D10C8091E10083FF29C0CE
:101F50008091E20083FF25C08091E100877F80931C
:101F6000E10082E08093D3011092CF018091E100E3
:101F70008E7F8093E1008091E2008E7F8093E2006B
:101F80008091E20080618093E20042E060E080E0C6
:101F90000E944A0E8091F00088608093F0000E94B9
:101FA0005C0BFF91EF91BF91AF919F918F917F91CA
:101FB0006F915F914F913F912F910F900FBE0F90B6
:101FC0001F9018951F920F920FB60F9211242F9306
:101FD0003F934F935F936F937F938F939F93AF93B1
:101FE000BF93CF93DF93EF93FF93C091E900CF703E
:101FF0008091EC00D82FD17080FDD0E81092E900DC
:102000008091F000877F8093F00078940E942610E2
:102010001092E9008091F00088608093F000CD2B51
:10202000CF70C093E900FF91EF91DF91CF91BF9105
:10203000AF919F918F917F916F915F914F913F9160
:102040002F910F900FBE0F901F9018951F93CF9355
:10205000DF93CDB7DEB7AA970FB6F894DEBF0FBEF9
:10206000CDBFE4EDF1E088E08E0F9091F100919307
:102070008E13FBCF0E94B20B8091E80083FF1FC13B
:102080008091D4019091D501492F50E04A305105FB
:1020900008F015C1FA01E65CFF4F0C940A2880385D
:1020A00081F0823809F00BC18091D8018F70809344
:1020B000E9008091EB0085FB882780F91092E90008
:1020C00006C08091D0019091D101911182609091D0
:1020D000E800977F9093E8008093F1001092F10060
:1020E000C8C0282F2D7F09F0EAC0882319F082305C
:1020F00061F0E5C08091D601813009F0E0C09330F5
:1021000009F080E08093D1012BC08091D60181112C
:1021100027C08091D8018F7009F4D1C08093E90065
:102120002091EB0020FF1CC0933021F48091EB0044
:10213000806214C09091EB0090619093EB0021E0DD
:1021400030E0A90102C0440F551F8A95E2F7409381
:10215000EA001092EA008091EB0088608093EB0027
:102160001092E9008091E800877F86C08111A7C0A6
:102170001091D6011F778091E3008078812B8093A6
:10218000E3008091E800877F8093E8000E947F0E43
:102190008091E80080FFFCCF8091E300806880930D
:1021A000E300111102C082E001C083E08093D301FB
:1021B00086C08058823008F082C08091D60190910C
:1021C000D7018C3D53E0950779F583E08A838AE255
:1021D00089834FB7F894DE01139620E03EE051E288
:1021E000E32FF0E050935700E49120FF03C0E29505
:1021F000EF703F5FEF708E2F90E0EA3010F0C796DF
:1022000001C0C0968D939D932F5F243149F74FBF36
:102210008091E800877F8093E8006AE270E0CE0159
:1022200001960E948C0D14C0AE014F5F5F4F60910C
:10223000D8010E94D30CBC01892B09F440C09091B5
:10224000E800977F9093E80089819A810E94EC0DC5
:102250008091E8008B778093E80031C0803879F571
:102260008091E800877F8093E8008091CF01809380
:10227000F1008091E8008E778093E8000E947F0E45
:102280001EC081111CC09091D6019230C0F4809183
:10229000E800877F8093E8009093CF010E947F0E33
:1022A0008091CF01811106C08091E30087FD02C0BB
:1022B00081E001C084E08093D3010E949E0B809155
:1022C000E80083FF0AC08091E800877F8093E800E0
:1022D0008091EB0080628093EB00AA960FB6F89491
:1022E000DEBF0FBECDBFDF91CF911F9108959093B8
:1022F0006101809360010895E0916001F0916101B6
:10230000309721F00190F081E02D099480E008954C
:10231000EF92FF920F931F93CF93DF93E0916001B1
:10232000F09161013097B1F18C010280F381E02DD1
:1023300009958091BE0182FF2DC080FF04C084EC0E
:1023400094E00E94CF05E80118E08EEBE82E84E0CF
:10235000F82E8091BE0180FF0BC088811F928F9361
:10236000FF92EF920E9468060F900F900F900F90CF
:10237000115021961111EDCF8091BE0180FF0AC04E
:102380008CEB94E0DF91CF911F910F91FF90EF9034
:102390000C94CF05DF91CF911F910F91FF90EF909B
:1023A0000895E0916001F0916101309721F004807F
:1023B000F581E02D09940895CF93DF93EC0180918E
:1023C0005E0190915F01C817D90709F1D0935F01B1
:1023D000C0935E01E0916001F09161013097B9F026
:1023E0000680F781E02DCE0109958091BE0182FF24
:1023F0000EC080FF0CC0DF93CF938EEA94E09F93D2
:102400008F930E9468060F900F900F900F90DF91AE
:10241000CF910895CF93DF93EC0180915C0190916F
:102420005D01C817D90709F1D0935D01C0935C0124
:10243000E0916001F09161013097B9F00084F1857D
:10244000E02DCE0109958091BE0182FF0EC080FF74
:102450000CC0DF93CF938EE994E09F938F930E94FB
:1024600068060F900F900F900F90DF91CF91089515
:102470000C9402130E94B91E0E9491060C947B09D1
:10248000CF92DF92EF92FF920F931F93CF93DF9340
:1024900000D000D000D0CDB7DEB70E94320883E66E
:1024A000C82E81E0D82E00E010E0E02E802F0E94A0
:1024B0001909F60141916F01F42EF826B1F40F5F6E
:1024C0001F4F0031110589F78FEF89838A831B82A3
:1024D0000E94C21E8160782F9D838C8349815A811E
:1024E0006B818D810E94541347C09091BE0191FF72
:1024F00004C08E830E941E138E8120E030E04F2D99
:1025000050E0922FBA01022E02C0759567950A9489
:10251000E2F760FF2BC02983EA8221E030E0690105
:1025200002C0CC0CDD1C9A95E2F790E08C219D2135
:10253000892B09F420E02B830E94C21E8160782F32
:102540009D838C8349815A816B818D810E945413B4
:1025500049815A816B817C818D810E943C1EF801EA
:10256000ED59FE4F8081C826C08206C02F5F3F4FC5
:102570002830310531F6A3CF0E943B1E0E94212254
:102580000E946107109162010E947C11181741F1AD
:102590000E947C11809362019091BE0192FF0EC057
:1025A00090FF0CC01F928F938FEC94E09F938F93BA
:1025B0000E9468060F900F900F900F90809162011B
:1025C00026960FB6F894DEBF0FBECDBFDF91CF9138
:1025D0001F910F91FF90EF90DF90CF900C944D1EC4
:1025E00026960FB6F894DEBF0FBECDBFDF91CF9118
:1025F0001F910F91FF90EF90DF90CF9008950C9472
:102600001F0908950895CF93DF931F92CDB7DEB7CA
:1026100069830E94190990E021E030E0698102C0DD
:10262000220F331F6A95E2F72823392381E0232BF9
:1026300009F480E00F90DF91CF910895EF92FF921F
:102640000F931F93CF93DF9388EE94E00E94CF0502
:10265000C0E0D0E089E2E82E81E0F82E0AED14E037
:102660008C2F0E9419090E94291EFF92EF921F923F
:102670008F93DF93CF931F930F930E946806219649
:102680008DB79EB708960FB6F8949EBF0FBE8DBF4C
:10269000C031D10529F7DF91CF911F910F91FF90A4
:1026A000EF90089508950895CF93DF93CDB7DEB7E7
:1026B0002B970FB6F894DEBF0FBECDBF942F4F837C
:1026C000252F588769877A878B874A855B85452BB5
:1026D00021F02F3F09F59F3FF9F4DE01119686E0C6
:1026E000FD0111928A95E9F785E0FE013796019088
:1026F0000D928A95E1F749815A816B817C818D81A8
:102700009E810E94F61A2B960FB6F894DEBF0FBE7C
:10271000CDBFDF91CF9108954F81588569857A8526
:102720008B850E943C1ED9CFCF93882309F4E8C043
:10273000C82F8238A1F40E947C1181FDE1C089E399
:102740000E94851D0E94FE1D2FEF81EE94E0215016
:1027500080409040E1F700C0000089E315C0833855
:10276000C1F40E947C1180FDCBC083E50E94851DD1
:102770000E94FE1D2FEF81EE94E02150804090409A
:10278000E1F700C0000083E50E94A21DCF910C94E8
:10279000FE1D8438A1F40E947C1182FDB1C087E443
:1027A0000E94851D0E94FE1D2FEF81EE94E02150B6
:1027B00080409040E1F700C0000087E4E5CF8CEF57
:1027C0008C0F813A48F48C2F0E944D25811198C0BE
:1027D0008C2F0E94851DDACF80E28C0F883048F460
:1027E000C77081E001C0880FCA95EAF70E94C41D36
:1027F000CDCF8BE58C0F833078F4C53A29F0C63AFB
:1028000031F083E890E005C081E890E002C082E802
:1028100090E0CF910C94DC1188E58C0F853108F0A5
:102820006FC0C83A61F1C93A69F1CA3A71F1CB3A5D
:1028300079F1CC3A81F1CD3A89F1CE3A91F1CF3AA2
:1028400099F1C13BA1F1C03BA9F1C23BB1F1C33B3E
:10285000B9F1C43BC1F1C53BC9F1C63BD1F1C73B9E
:10286000D9F1C83BE1F1C93BE9F1CA3BF1F1CB3BFE
:10287000F9F1CC3B09F43FC080E090E03EC082EE2D
:1028800090E03BC089EE90E038C08AEE90E035C021
:1028900085EB90E032C086EB90E02FC083EB90E0B8
:1028A0002CC084EB90E029C087EB90E026C08CEC34
:1028B00090E023C08DEC90E020C083E891E01DC043
:1028C0008AE891E01AC082E991E017C084E991E0BA
:1028D00014C081E292E011C083E292E00EC084E273
:1028E00092E00BC085E292E008C086E292E005C06B
:1028F00087E292E002C08AE292E0CF910C940A1241
:10290000CF910895882309F466C08238A1F40E940B
:102910007C1181FF60C089E30E94851D0E94FE1D1D
:102920002FEF81EE94E0215080409040E1F700C00D
:10293000000089E315C08338B9F40E947C1180FF40
:102940004AC083E50E94851D0E94FE1D2FEF81EE87
:1029500094E0215080409040E1F700C0000083E502
:102960000E94A21D0C94FE1D8438A1F40E947C11CB
:1029700082FF31C087E40E94851D0E94FE1D2FEF5B
:1029800081EE94E0215080409040E1F700C00000CB
:1029900087E4E6CF9CEF980F913A10F390E2980FFE
:1029A000983050F4877091E001C0990F8A95EAF74A
:1029B000892F0E94CA1DD6CF9BE5980F933020F433
:1029C00080E090E00C94DC11885A853120F480E09E
:1029D00090E00C940A120895882321F00E94C41DEF
:1029E0000C94FE1D0895882321F00E94CA1D0C94AA
:1029F000FE1D0895BF92CF92DF92EF92FF920F9348
:102A00001F93CF93DF9300D000D000D0CDB7DEB7B7
:102A100025E0FC01DE01119601900D922A95E1F767
:102A2000FC0140813181F280258122952F706381E4
:102A30007481672B09F4FEC23F3F19F44F3F09F43C
:102A4000F9C26C0149833A8389819A812E830E945D
:102A5000441D182FB92E0E94431D0E94531CEB2DBC
:102A6000E295EF70F0E0EC5BFF4F2E810C940A28AA
:102A70008B2D807F9B2D9F70092F882311F002954D
:102A8000007FFF2049F0002309F481C2802F0E94BB
:102A9000D71D0E94FE1D7BC2812F0E94821400233D
:102AA00009F4C8C2802F0E94DD1D26960FB6F89447
:102AB000DEBF0FBECDBFDF91CF911F910F91FF9071
:102AC000EF90DF90CF90BF900C94FE1D8B2D807FF8
:102AD0009B2D9F70092F803211F00295007F1123EA
:102AE00019F0113009F12AC0FF20B1F0802F222304
:102AF00051F1213041F526960FB6F894DEBF0FBE96
:102B0000CDBFDF91CF911F910F91FF90EF90DF909C
:102B1000CF90BF900C94E71D222319F0213009F4C7
:102B200089C20E94EA1D2DC0FF20F1F0263008F076
:102B300081C20E94C11D802329F023C0FF20F9F02B
:102B4000211116C0802F26960FB6F894DEBF0FBE57
:102B5000CDBFDF91CF911F910F91FF90EF90DF904C
:102B6000CF90BF900C94EC14253008F063C209C0DC
:102B7000F601858180FF0BC28F708583E3CF211121
:102B80001BC2802F82C12B2D26952695237030E005
:102B90002115310521F021303105D1F04BC2FF2044
:102BA00021F0812F9B2D937002C080E090E026964B
:102BB0000FB6F894DEBF0FBECDBFDF91CF911F914E
:102BC0000F91FF90EF90DF90CF90BF900C94DC11AD
:102BD000FF2021F0812F9B2D937002C080E090E0B8
:102BE00026960FB6F894DEBF0FBECDBFDF91CF9112
:102BF0001F910F91FF90EF90DF90CF90BF900C94BA
:102C00000A12812FFF2019F00E94A72002C00E9403
:102C10000F2126960FB6F894DEBF0FBECDBFDF9111
:102C2000CF911F910F91FF90EF90DF90CF90BF90C9
:102C30000C9494218B2D837009F07BC0F110FAC1A4
:102C4000812F829586958770880F880F912F9F70AE
:102C5000C92ED12CE12CF12C082E04C0CC0CDD1C8B
:102C6000EE1CFF1C0A94D2F714FF12C04FE050E094
:102C700060E070E004C0440F551F661F771F8A95FF
:102C8000D2F7CB01BA01609570958095909503C0FD
:102C900060E070E0CB012B2D269526952370422F06
:102CA00050E042305105D9F04330510569F16C29AB
:102CB0007D298E299F294130510551F126960FB665
:102CC000F894DEBF0FBECDBFDF91CF911F910F9162
:102CD000FF90EF90DF90CF90BF900C94681C6C2910
:102CE0007D298E299F2926960FB6F894DEBF0FBE48
:102CF000CDBFDF91CF911F910F91FF90EF90DF90AB
:102D0000CF90BF900C947A1C0E94681CC701B6013A
:102D100026960FB6F894DEBF0FBECDBFDF91CF91E0
:102D20001F910F91FF90EF90DF90CF90BF900C9488
:102D3000561CFF2019F08B2D817001C086958823C9
:102D400009F478C1812F829586958770880F880F46
:102D5000912F9F70C92ED12CE12CF12C082E04C08C
:102D6000CC0CDD1CEE1CFF1C0A94D2F714FF12C021
:102D70004FE050E060E070E004C0440F551F661F54
:102D8000771F8A95D2F7CB01BA016095709580952F
:102D9000909503C060E070E0CB012B2D2695269521
:102DA0002370422F50E042305105D9F04330510595
:102DB00069F16C297D298E299F294130510551F1F6
:102DC00026960FB6F894DEBF0FBECDBFDF91CF9130
:102DD0001F910F91FF90EF90DF90CF90BF900C94D8
:102DE0001F1D6C297D298E299F2926960FB6F894E0
:102DF000DEBF0FBECDBFDF91CF911F910F91FF902E
:102E0000EF90DF90CF90BF900C94311D0E941F1D5A
:102E1000C701B60126960FB6F894DEBF0FBECDBF30
:102E2000DF91CF911F910F91FF90EF90DF90CF90A6
:102E3000BF900C940D1D103FC9F128F480E4810F60
:102E4000803250F09FC0123F09F461C008F44AC0BC
:102E5000133F09F471C096C0012F00718B2D8F7143
:102E6000FF2051F00E94A61C812F002319F08295AB
:102E7000807F69CE8F7067CE0E94C71C812F002390
:102E800019F08295807F01C08F7026960FB6F89456
:102E9000DEBF0FBECDBFDF91CF911F910F91FF908D
:102EA000EF90DF90CF90BF900C94F314FF20B1F01F
:102EB000253008F0BFC08B2D8F7126960FB6F89481
:102EC000DEBF0FBECDBFDF91CF911F910F91FF905D
:102ED000EF90DF90CF90BF900C94EC1C263008F060
:102EE000A9C0E9CFFF20A9F08B2D8F7126960FB6D0
:102EF000F894DEBF0FBECDBFDF91CF911F910F9130
:102F0000FF90EF90DF90CF90BF900C94A61CFF2015
:102F100059F38B2D8F7126960FB6F894DEBF0FBE36
:102F2000CDBFDF91CF911F910F91FF90EF90DF9078
:102F3000CF90BF900C94C71CFF2099F08B2D8F7100
:102F400026960FB6F894DEBF0FBECDBFDF91CF91AE
:102F50001F910F91FF90EF90DF90CF90BF900C9456
:102F6000911C26960FB6F894DEBF0FBECDBFDF9141
:102F7000CF911F910F91FF90EF90DF90CF90BF9076
:102F80000C948C1CFF20A9F0222309F4ADCF812FD3
:102F900026960FB6F894DEBF0FBECDBFDF91CF915E
:102FA0001F910F91FF90EF90DF90CF90BF900C9406
:102FB0009413222309F4ADCF812F26960FB6F894EF
:102FC000DEBF0FBECDBFDF91CF911F910F91FF905C
:102FD000EF90DF90CF90BF900C9482144B2D4F70E8
:102FE000612FC6010E944B1F26960FB6F894DEBFD4
:102FF0000FBECDBFDF91CF911F910F91FF90EF904A
:10300000DF90CF90BF900C949E1B4B2D4F70612F83
:10301000C60126960FB6F894DEBF0FBECDBFDF9176
:10302000CF911F910F91FF90EF90DF90CF90BF90C5
:103030000C944E1F26960FB6F894DEBF0FBECDBF80
:10304000DF91CF911F910F91FF90EF90DF90CF9084
:10305000BF9008950E94E41D0E94B31D0E94FE1DB2
:103060000E94C8220E94942180E090E00E94DC111E
:1030700080E090E00C940A120E94D41D0C942A184F
:103080000E94441D292F22952F7030E02C303105ED
:103090004CF42A303105C4F4225031092230310574
:1030A00040F023C02C303105D1F02F303105B9F07C
:1030B0001CC0853A28F48430B0F4823028F413C060
:1030C00090E2980F983078F0883E30F4803E58F4C3
:1030D0008450813A50F407C0803F39F404C093FB18
:1030E000882780F9089581E0089580E00895CF93BE
:1030F000DF9300D000D01F92CDB7DEB70F900F90B6
:103100000F900F900F90DF91CF910895CF93DF93A1
:1031100000D000D000D0CDB7DEB726960FB6F89419
:10312000DEBF0FBECDBFDF91CF910895CF93DF9368
:10313000C091730180917401C817A1F0D0E0CE0155
:1031400066E070E00E94D927FC01EB58FE4F4081F9
:10315000518162817381848195810E9486182196B4
:10316000C770E8CFDF91CF9108954091A5015091AC
:10317000A6016091A7017091A8018091A901909189
:10318000AA010C948618CF93DF938091AA018295AF
:103190008F7009F05CC08091A701882309F457C0A3
:1031A00020917301D09174014091A501C091A601B5
:1031B000E091A801F091A9012D1709F448C030E071
:1031C000309709F440C0CF3F11F44F3FE1F1C901FE
:1031D00066E070E00E94D927DC01AB58BE4F119623
:1031E0008C911197C8132FC08C9148132CC0129644
:1031F0008C911297811127C013968D919C911497F1
:103200008E179F0708F401978E1B9F0B883C910532
:10321000D0F48091AA018F7080618093AA01C901C6
:1032200066E070E00E94D927FC01E658FE4F9081CD
:103230009F709061908385EA91E00E94FA14DF917B
:10324000CF910C9496182F5F3F4F2770B5CFDF9129
:10325000CF910895BF92CF92DF92EF92FF920F939A
:103260001F93CF93DF93CDB7DEB761970FB6F89476
:10327000DEBF0FBECDBF8C0185E0F801DE011D96DB
:1032800001900D928A95E1F7D8014C9111962C91FD
:1032900011971296EC9012971396CD90DC9014979C
:1032A0005091A5016091A6018091A8019091A9017A
:1032B000009709F46EC16F3F19F45F3F09F469C1CB
:1032C000B090A701BB2009F4C3C03091AA01C81671
:1032D000D90628F0F601E81BF90BCF0104C0809550
:1032E00090958C0D9D1DFF24F394883C910588F0EA
:1032F000F12C307F09F0CBC07C2DD98AC88A522F9F
:103300006E2D89890E94771885EA91E00E94FA144F
:10331000B4C0832F807F09F049C0621314C05413D6
:1033200012C0E11010C03F7030613093AA010E94BA
:10333000B51885EA91E00E94FA148091AA01D8019B
:1033400015968C9331C0CD2831F12F3F11F44F3FAA
:1033500011F1FE2CE1101FC0E09173013091740156
:10336000E31709F45CC0F0E0CF0166E070E00E9472
:10337000D927DC01AB58BE4F11968C9111972813B9
:1033800007C08C91481304C012968C91811103C020
:103390003196E770E5CFFE2CEE2009F416C180913E
:1033A000AA0181608093AA01F12C0FC1621308C0A9
:1033B000541306C0E11004C08091AA01D801C1C015
:1033C0004D872E878D859E850E9440188823E1F1C8
:1033D000EE20D1F12091AA01822F82958F7090E08A
:1033E000029774F08091A5019091A60198878F8330
:1033F0001986DB86CA862C87CE0107960E94FA14AE
:1034000086E0F801A5EAB1E001900D928A95E1F716
:103410000E94C3180E94B518FF24F394D6C04D87AC
:103420002E878D859E850E94441D292F22952F7001
:1034300030E0223031050CF0BCC09F7009F0B6C0FE
:10344000805E883008F4C1C0C8010E94FA14E4CF3D
:10345000C816D90608F453C0F601E81BF90BCF01D2
:10346000883C910508F450C0F12C7C2DD98AC88A7B
:10347000522F6E2D89890E947718E5EAF1E086E0E7
:10348000DF011D928A95E9F70E94B5189EC062136C
:1034900014C0541312C0E11010C08091AA01F801A9
:1034A0008583C8010E94FA1486E0E5EAF1E0DF01B5
:1034B0001D928A95E9F7FB2C88C04D872E878D8554
:1034C0009E850E944018882309F4BECFEE2009F49F
:1034D000BBCF2091AA01822F82958F7090E0029736
:1034E0000CF48ECF8091A5019091A6019A838983D7
:1034F0001B82DD82CC822E83CE0101967FCF809508
:1035000090958C0D9D1DACCFFE2CEE2009F49CCF28
:1035100062132EC054132CC02091AA0120FD1FC09D
:10352000822F82958F70D9F0D80115962C9315971C
:103530008F3049F08F5F982F9295907F822F8F70F8
:10354000892B15968C93C8010E94FA1486E0F80125
:10355000A5EAB1E001900D928A95E1F795CF86E05A
:10356000F801A5EAB1E001900D928A95E1F72DC02E
:103570004D872E878D859E850E944018811140CFF2
:103580008091AA0181608093AA01C8010E94FA1467
:103590001CC0EE2009F458CF4D872E878D859E855F
:1035A0000E944018882309F44FCF2ACF811148CFB9
:1035B0000CC0243031050CF047CF9F7009F440CF88
:1035C000F8019581907F09F03BCF8F2D61960FB662
:1035D000F894DEBF0FBECDBFDF91CF911F910F9149
:1035E000FF90EF90DF90CF90BF900895CF93DF933F
:1035F000CDB7DEB72C970FB6F894DEBF0FBECDBFA8
:103600004F83588769877A878B879C87CE01079677
:103610000E942A19882371F08F8198852A853B851D
:10362000232B09F43FC09F3F09F068C08F3F09F08A
:1036300065C038C086E0FE013796DE011196019024
:103640000D928A95E1F76F817885EA85FB85309741
:1036500049F17F3F11F46F3F29F18091740190E0AF
:103660009C012F5F3F4F277033274091730150E03B
:103670002417350709F44BC069837A83FD83EC83F3
:1036800066E070E00E94D927DC01AB58BE4F96E09F
:10369000FE01319601900D929A95E1F72093740105
:1036A0000E94961880917301909174018917E9F135
:1036B00090E066E070E00E94D9278B589E4F0E94F0
:1036C0002A19882391F18091730190E066E070E0FF
:1036D0000E94D927FC01EB58FE4F40815181628145
:1036E0007381848195810E9486188091730190E096
:1036F00001968770992780937301D4CF4F815885A5
:1037000069857A858B859C850E948618CBCF0E941F
:103710003C181092740110927301E5EAF1E086E022
:10372000DF011D928A95E9F7BDCF2C960FB6F8946C
:10373000DEBF0FBECDBFDF91CF910895DF92EF9234
:10374000FF920F931F93CF93DF93FC01892B09F412
:103750008AC0E12CF12CDD24D394EF0121968491D1
:10376000853709F461C058F4843708F04EC08430BE
:1037700008F06AC08130D1F0823071F174C08837AE
:1037800009F45DC050F4863709F455C0873709F055
:103790006AC08E2D0E94D11D54C09CE7980F9037AF
:1037A00008F061C08F770E94821450C08F010E5FB5
:1037B0001F4FFE01849190E2980F983050F487706B
:1037C000FD2D01C0FF0F8A95EAF78F2F0E94D71DAC
:1037D00014C00E94941313C08F010E5F1F4FFE018F
:1037E000C49180E28C0F883060F4C7708D2D01C0C9
:1037F000880FCA95EAF70E94DD1D0E94FE1DE801B0
:1038000025C08C2F0E948214FACF9F012E5F3F4F5C
:10381000FE01C491CC2369F08FE99FE00197F1F795
:1038200000C00000C150F6CF9F012E5F3F4FFE0148
:10383000F490E9010BC00E94C11DE82E07C00E9450
:10384000D41D0E94FE1D02C00E9494138F2D882358
:1038500041F0EFE9FFE03197F1F700C0000081503F
:10386000F6CFFE017ACFDF91CF911F910F91FF909C
:10387000EF90DF9008956093AF017093B001809353
:10388000B1019093B2010E944B1E0C942A186093D0
:10389000AB017093AC018093AD019093AE010E9497
:1038A0004C1E0C942A1808950C943B1C0F931F93E4
:1038B0000091AF011091B0012091B1013091B2019E
:1038C000602B712B822B932B1F910F910C943B1C1F
:1038D0000F931F930091AF011091B0012091B1019E
:1038E0003091B20160237123822393231F910F91A2
:1038F0000C943B1C0F931F930091AF011091B001EA
:103900002091B1013091B20160277127822793275E
:103910001F910F910C943B1C60E070E0CB010C9464
:10392000471C0F931F9341E050E060E070E08A0174
:103930009B0104C0000F111F221F331F8A95D2F76D
:10394000C901B8011F910F910C94471C0F931F934D
:1039500041E050E060E070E004C0440F551F661F76
:10396000771F8A95D2F78091AB019091AC01A0911D
:10397000AD01B091AE018A019B01082B192B2A2BB6
:103980003B2BC901B8011F910F910C94471C0F9359
:103990001F9341E050E060E070E004C0440F551F09
:1039A000661F771F8A95D2F7409550956095709560
:1039B0008091AB019091AC01A091AD01B091AE01AD
:1039C0008A019B01082319232A233B23C901B8013B
:1039D0001F910F910C94471C0F931F9341E050E0EF
:1039E00060E070E004C0440F551F661F771F8A9582
:1039F000D2F78091AB019091AC01A091AD01B09153
:103A0000AE018A019B01082719272A273B27C901F4
:103A1000B8011F910F910C94471C0F931F930091B5
:103A2000AB011091AC012091AD013091AE01602B42
:103A3000712B822B932B1F910F910C94471C0F938A
:103A40001F930091AB011091AC012091AD01309119
:103A5000AE0160237123822393231F910F910C9455
:103A6000471C0F931F930091AB011091AC01209163
:103A7000AD013091AE0160277127822793271F91F6
:103A80000F910C94471C0895CF92DF92EF92FF9212
:103A90000F931F93CF93DF938C01C090AF01D09011
:103AA000B001E090B101F090B2014091AB015091B2
:103AB000AC016091AD017091AE01C42AD52AE62A0D
:103AC000F72ACFE1D0E0D701C6010C2E04C0B6958D
:103AD000A795979587950A94D2F780FF07C0B801FC
:103AE0008C2F0E946C1F8130910531F4219758F77B
:103AF000B80180E00E946C1FDF91CF911F910F9160
:103B0000FF90EF90DF90CF90089520910D013091BC
:103B10000E01F90132969FEF40E05191581789F05C
:103B20009F3F19F4511101C0942F4F5F4630A9F700
:103B30009F3F39F0F901E90FF11D97FDFA95828356
:103B40000895089520910D0130910E01F9013296EA
:103B5000285F3F4F9081981301C010823196E21781
:103B6000F307C1F7089581E090E0E0910D01F09135
:103B70000E01E80FF91F1082019688309105A9F710
:103B800008958091BD0108959091BD01892B809386
:103B9000BD01089580959091BD0189238093BD0159
:103BA00008958093BD0108951092BD0108959091EC
:103BB000BC01892B8093BC01089580959091BC0134
:103BC00089238093BC0108951092BC0108958093CD
:103BD000B30108951092B301089580910D01909161
:103BE0000E01FC0131969C01285F3F4F80E09191CE
:103BF00091118F5FE217F307D1F70895E0910D015E
:103C0000F0910E018091BD018083E0910D01F09152
:103C10000E0190818091BC01892B80838091B3013A
:103C2000882361F0E0910D01F0910E019081892BC4
:103C300080830E94ED1D81111092B30180910D01CE
:103C400090910E010C94881190933501809334016A
:103C500008958295982F9C7C292F26952695982F3C
:103C60009373990F990F922B892F8A7A8695957560
:103C7000990F892B08950895CF93DF9300D000D03A
:103C80001F92CDB7DEB70F900F900F900F900F904F
:103C9000DF91CF910895089508950C94FF128091BB
:103CA000D301843021F11092BF0120E488E190E03B
:103CB0000FB6F894A895809360000FBE2093600023
:103CC00083B7817F846083BF83B7816083BF78942B
:103CD000889583B78E7F83BF0FB6F894A89580919F
:103CE0006000886180936000109260000FBE0895AC
:103CF000CF930E9452130E9432080E945313C0E0D7
:103D00008C2F0E941909811104C0CF5FC031C1F707
:103D100001C081E0CF9108950E9401130C943C18DA
:103D20001F920F920FB60F9211248F939F93AF9310
:103D3000BF938091BF01811113C08091C001909108
:103D4000C101A091C201B091C3014196A11DB11D55
:103D50008093C0019093C101A093C201B093C301AD
:103D6000BF91AF919F918F910F900FBE0F901F90B9
:103D7000189582E084BD93E095BD9AEF97BD80933E
:103D80006E0008952FB7F8948091C0019091C10101
:103D9000A091C201B091C3012FBF08952FB7F8942D
:103DA0006091C0017091C1018091C2019091C301E5
:103DB0002FBF0895CF92DF92EF92FF920F931F9340
:103DC0002FB7F8944091C0015091C1016091C20198
:103DD0007091C3012FBF6A017B01EE24FF248C0187
:103DE00020E030E0C016D106E206F30610F44150A0
:103DF00051099A01281B390BC9011F910F91FF909E
:103E0000EF90DF90CF9008951F920F920FB60F9210
:103E100011248F939F93AF93BF938091C001909192
:103E2000C101A091C201B091C3010196A11DB11DB4
:103E30008093C0019093C101A093C201B093C301CC
:103E4000BF91AF919F918F910F900FBE0F901F90D8
:103E500018950E94D00EF8942FEF87EA91E6215032
:103E600080409040E1F700C0000087E090EBDC016B
:103E70008093DC019093DD01A093DE01B093DF011C
:103E80009CE088E10FB6F894A895809360000FBE7F
:103E900090936000FFCF80E090E008950895E82FB0
:103EA000F0E084E0EE0FFF1F8A95E1F7E70FF11DC8
:103EB00093E0EE0FFF1F9A95E1F7E60FF11DE45531
:103EC000FF4F84910895E82FF0E0EE0FFF1FE85DAB
:103ED000F0408591949108950E944F1F90E4980FAF
:103EE000903218F40E94631F08958D3B50F4883A75
:103EF000A0F5853A28F5843000F5813009F49DC09D
:103F000099C0883E98F4803EC0F48F3B09F092C07F
:103F10000E943C182FEF80E792E0215080409040B3
:103F2000E1F700C000000E94291F84C0803F08F410
:103F300081C0282F30E0306582C0282F30E07FC05C
:103F4000853A29F0863A31F023E830E478C021E858
:103F500030E475C022E830E472C0883A61F1893AF1
:103F600069F18A3A71F18B3A79F18C3A81F18D3AA3
:103F700089F18E3A91F18F3A99F1813BA1F1803B21
:103F8000A9F1823BB1F1833BB9F1843BC1F1853B9F
:103F9000C9F1863BD1F1873BD9F1883BE1F1893BFF
:103FA000E9F18A3BF1F18B3BF9F18C3B09F43FC01D
:103FB00020E034E444C022EE34E441C029EE34E48D
:103FC0003EC02AEE34E43BC025EB34E438C026EB97
:103FD00034E435C023EB34E432C024EB34E42FC0A6
:103FE00027EB34E42CC02CEC34E429C02DEC34E471
:103FF00026C023E835E423C02AE835E420C022E9BE
:1040000035E41DC024E935E41AC021E236E417C0C6
:1040100023E236E414C024E236E411C025E236E49B
:104020000EC026E236E40BC027E236E408C02AE2DE
:1040300036E405C020E030E002C021E030E0C901F4
:1040400008958091C60180FF0CC08091120190E01C
:1040500065E070E00E94D92795958795959587959D
:104060002EC081FF0AC08091120190E065E070E0EF
:104070000E94D9279595879522C082FF08C080911C
:10408000120190E065E070E00E94D92718C02091ED
:10409000C7012223D1F030911101231780F78091BD
:1040A000120190E065E070E00E94D927622F70E075
:1040B0000E94D927632F70E00E94F627CB01803839
:1040C000910530F4009731F0089585E090E008956F
:1040D0008FE7089581E008958091C60180FF08C0B0
:1040E0006091100170E0759567957595679523C08F
:1040F00081FF06C06091100170E0759567951BC047
:1041000082FF04C06091100170E012C06091C7018D
:104110006623D1F020910F016217A0F78091100162
:1041200070E090E00E94D927622F70E00E94F6278D
:104130006038710528F46115710521F0862F089506
:104140008FE7089581E0089561E070E0F4CF803F4B
:1041500021F40E942120819504C0813F29F40E940E
:1041600021208093CA010895823F21F40E942120DA
:10417000819504C0833F29F40E9421208093C901C6
:104180000895893F19F40E946C2005C08A3F31F4DC
:104190000E946C2081958093CB0108958B3F21F480
:1041A0000E946C20819504C08C3F29F40E946C20F1
:1041B0008093CC010895843F21F48091C8018160EF
:1041C00017C0853F21F48091C801826011C0863FED
:1041D00021F48091C80184600BC0873F21F4809155
:1041E000C801886005C0883F31F48091C8018061B2
:1041F0008093C80108958D3F21F48091C6018160AC
:104200000BC08E3F21F48091C601826005C08F3FB4
:1042100029F48091C60184608093C6010895803F8F
:1042200039F48091CA0187FF6CC01092CA0169C03D
:10423000813F29F48091CA011816BCF362C09091A5
:10424000C901823F29F497FF5CC01092C90159C08F
:10425000833F19F41916CCF354C0893F41F480917F
:10426000CB0118160CF04DC01092CB014AC08A3F0A
:1042700029F48091CB0187FF44C0F6CF8B3F39F4FE
:104280008091CC0187FF3DC01092CC013AC08C3F99
:1042900029F48091CC011816BCF333C0843F21F47B
:1042A0008091C8018E7F17C0853F21F48091C8019D
:1042B0008D7F11C0863F21F48091C8018B7F0BC098
:1042C000873F21F48091C801877F05C0883F31F482
:1042D0008091C8018F7E8093C80113C08D3F21F467
:1042E0008091C6018E7F0BC08E3F21F48091C60164
:1042F0008D7F05C08F3F29F48091C6018B7F80930D
:10430000C6018091C90181110EC08091CA0181113D
:104310000AC08091CB01811106C08091CC0181112E
:1043200002C01092C70108958091BE0183FF7EC034
:104330008DE195E00E94CF058091C8011F928F9377
:1043400088E195E09F938F930E94680686E195E04F
:104350000E94CF058091C901282F082E000C330B35
:104360003F938F9383E195E09F938F930E9468061C
:1043700081E195E00E94CF058091CA01282F082E87
:10438000000C330B3F938F938EE095E09F938F93B8
:104390000E9468068CE095E00E94CF058091CB01D9
:1043A000282F082E000C330B3F938F9389E095E064
:1043B0009F938F930E94680687E095E00E94CF0547
:1043C0008091CC01282F082E000C330B3F938F9344
:1043D00084E095E09F938F930E94680681E095E0CA
:1043E0000E94CF058091C7011F928F938EEF94E0BA
:1043F0009F938F930E9468068CEF94E00E94CF05F4
:104400008091C6011F928F9389EF94E09F938F93C1
:104410000E94680686EF94E00E94CF058DB79EB794
:104420004C960FB6F8949EBF0FBE8DBF88EC91E0FE
:104430000E94D1110E94C21E9093C5018093C401B5
:1044400008951F93CF93DF938091C4019091C5018C
:104450000E94DA1EFC012091C701222329F09091CD
:104460001301892F90E007C08091140190E06AE069
:1044700070E00E94D927E817F90708F485C08091F9
:10448000C901C091CA01D091CB011091CC01811119
:1044900007C0C11175C0D11173C0111171C074C0B2
:1044A0002F3F19F02F5F2093C701181624F40E94A4
:1044B00021208093C9018091C90187FF05C00E9416
:1044C000212081958093C9011C1624F40E9421208B
:1044D0008093CA018091CA0187FF05C00E942120F4
:1044E00081958093CA016091C901662331F1C09121
:1044F000CA01CC2311F1062E000C770B880B990B07
:104500000E94D82623E333E343E35FE30E943C2782
:104510000E94A0266093C9016C2FCC0F770B880BEB
:10452000990B0E94D82623E333E343E35FE30E9421
:104530003C270E94A0266093CA011D1624F40E9405
:104540006C208093CB018091CB0187FF05C00E9436
:104550006C2081958093CB01111624F40E946C206D
:104560008093CC018091CC0187FF05C00E946C2014
:1045700081958093CC01DF91CF911F910C94942170
:104580002F3F09F08FCF97CFDF91CF911F910895E3
:10459000E8ECF1E085E0DF011D928A95E9F71092E1
:1045A000C7011092C601089580E497E00E94CF05EC
:1045B0001F9281E08F931F9285E08F9382EF96E0A8
:1045C0009F938F930E9468060F900F900F900F900B
:1045D0000F900F9008958330E9F128F4813061F055
:1045E000823009F10895853009F462C008F449C0A9
:1045F000863009F474C0089580911401262F30E0AC
:10460000280F311D2F3F310524F4680F60931401EA
:1046100003C08FEF80931401809114011F928F9338
:104620008BE296E072C080911301262F30E0280FB4
:10463000311D2F3F310524F4680F6093130103C02F
:104640008FEF80931301809113011F928F9389E163
:1046500096E05BC080911201262F30E0280F311DBB
:104660002F3F310524F4680F6093120103C08FEFD0
:1046700080931201809112011F928F9386E096E041
:1046800044C080911101262F30E0280F311D2F3FAB
:10469000310524F4680F6093110103C08FEF8093FC
:1046A0001101809111011F928F9381EF95E02DC030
:1046B00080911001262F30E0280F311D2F3F31054A
:1046C00024F4680F6093100103C08FEF80931001F2
:1046D000809110011F928F9388ED95E016C0809114
:1046E0000F01262F30E0280F311D2F3F310524F414
:1046F000680F60930F0103C08FEF80930F018091CB
:104700000F011F928F938DEB95E09F938F930E94E3
:1047100068060F900F900F900F900895833081F1ED
:1047200028F4813059F08230D1F00895853009F4B1
:1047300049C0B8F1863009F456C00895809114013B
:10474000681720F4861B8093140102C01092140194
:10475000809114011F928F938EEA95E054C080914E
:104760001301681720F4861B8093130102C0109276
:104770001301809113011F928F938CE995E043C040
:1047800080911201681720F4861B8093120102C0E9
:1047900010921201809112011F928F9389E895E087
:1047A00032C080911101681720F4861B809311019B
:1047B00002C010921101809111011F928F9384E722
:1047C00095E021C080911001681720F4861B80932A
:1047D000100102C010921001809110011F928F935E
:1047E0008BE595E010C080910F01681720F4861BBF
:1047F00080930F0102C010920F0180910F011F9250
:104800008F9380E495E09F938F930E9468060F90AA
:104810000F900F900F900895CF93C82F1F928F93F2
:1048200085E498E09F938F930E94680681E090E072
:10483000A0E0B0E0BC01CD0104C0660F771F881F67
:10484000991FCA95D2F70E94541C0F900F900F9099
:104850000F90CF910C943C18CF93873288F58E310E
:1048600008F00BC18E3009F487C0D8F4873009F402
:1048700060C08B3009F44FC0863009F002C18091CE
:10488000BE01817F8E7F8093BE018AE498E00E9402
:10489000CF058FEE9AE00E94CF0581E08093CE0194
:1048A00046C0863109F4B0C020F4803109F47AC0E2
:1048B000E8C0893109F491C08B3109F449C0E1C0E5
:1048C000883349F150F4893209F4D5C0853309F4AD
:1048D000D2C0873209F0D5C0CEC0833409F4CBC032
:1048E00028F48A3308F4CDC08953C8C0883409F04D
:1048F000C8C00E943C188EED9AE00E94CF052FEFB1
:1049000083ED90E3215080409040E1F700C000002B
:104910000E94291F0CC081E798E041C085EC9AE015
:104920000E94CF058091BE0181608093BE01C1E0ED
:10493000ADC08091BE01C82FC17080FFEFCF81ED67
:104940009AE00E94CF058091BE01817F8E7F3FC09B
:104950009091BE0191FBCC27C0F981E0C827892F37
:10496000C0FB81F98093BE01CC2319F088EB9AE05B
:1049700029C08AEA9AE013C09091BE0192FBCC272D
:10498000C0F981E0C827892FC0FB82F98093BE015E
:10499000CC2319F08BE99AE015C08BE89AE00E94CD
:1049A000CF05C5CF9091BE0193FBCC27C0F981E024
:1049B000C827892FC0FB83F98093BE01CC2351F017
:1049C0008FE79AE00E94CF058091BE0181608093BD
:1049D000BE015CC082E79AE0E2CF83E69AE00E94E3
:1049E000CF0580E49AE00E94CF058BEF99E00E940A
:1049F000CF0584ED99E00E94CF058EE999E00E94F1
:104A0000CF058FE699E0CBCF81E699E00E94CF05F4
:104A10000E947C111F928F9387E499E09F938F935C
:104A20000E94680680910C011F928F9380E399E0A9
:104A30009F938F930E94680680915B011F928F93D2
:104A40008DE199E09F938F930E9468060E94CE1E8D
:104A50009F938F937F936F9386E099E09F938F93BB
:104A60000E9468068DB79EB742960FB6F8949EBF17
:104A70000FBE8DBF5CCF80E001C08D510E940C2421
:104A800056CF84E099E00E94CF05C0E08C2FCF91F3
:104A9000089580E0089580E00895CF93C82F809115
:104AA000CE01813069F020F0823009F449C040C164
:104AB00067E08FE00E940313882309F43FC106C01A
:104AC00067E08FE00E940313882361F08C2F0E941F
:104AD0004925811104C08C2F0E942C242FC081E015
:104AE00090E02CC08C2F0E944B25811126C0C43130
:104AF000E1F070F4CB3081F0C031D1F40E94D422C7
:104B00008DE398E00E94CF0582E08093CE0115C02E
:104B1000C93259F0C83361F48AE498E00E94CF05A5
:104B200081E498E00E94CF0508C01092CE0104C134
:104B30008BE398E00E94CF05FFC081E08170FEC04A
:104B4000C43228F5CE3108F0C1C0CB30A1F1D0F489
:104B5000C73009F0D3C08EE18093140182E38093C3
:104B600013018AE08093120184E18093110188E0AF
:104B70008093100188E280930F0181EE96E00E94FD
:104B8000CF05BFC0C33149F1C431C1F0B7C0CB3488
:104B900009F4A9C028F4C93289F0C83361F0AEC065
:104BA000C13509F49EC0C23509F499C0CE3409F06C
:104BB000A5C06AE09EC00E94D422A3C08091CD010E
:104BC000882319F01092CD019CC08EEE96E00E94D1
:104BD000CF0581E08093CE01B1C088EC96E00E94C1
:104BE000CF0586EB96E00E94CF05809114011F92BD
:104BF0008F9383EB96E09F938F930E94680681EBDF
:104C000096E00E94CF058FE996E00E94CF05809143
:104C100013011F928F938CE996E09F938F930E94CC
:104C200068068AE996E00E94CF058BE896E00E942C
:104C3000CF05809112011F928F9388E896E09F9391
:104C40008F930E94680686E896E00E94CF0585E76C
:104C500096E00E94CF05809111011F928F9382E709
:104C600096E09F938F930E94680680E796E00E94EB
:104C7000CF058BE596E00E94CF05809110011F9231
:104C80008F9388E596E09F938F930E94680686E550
:104C900096E00E94CF058FE396E00E94CF058091B9
:104CA0000F011F928F938CE396E09F938F930E9446
:104CB00068068AE396E00E94CF058DB79EB74896B6
:104CC0000FB6F8949EBF0FBE8DBF1BC0CE51EC2F08
:104CD000F0E0E65DFE4F80818093CD0112C061E07F
:104CE00003C061E006C06AE08091CD010E94EB2222
:104CF00008C08091CD010E948E2303C08FED96E005
:104D000013C08091CD01882369F01F928F9389EDA4
:104D100096E09F938F930E9468060F900F900F90DC
:104D20000F9004C086ED96E00E94CF0581E006C09A
:104D30001092CE0180E002C080E000CFCF910895B4
:104D40000E94A7266894B1110C94362708950E94FA
:104D50001B2788F09F5798F0B92F9927B751B0F0CB
:104D6000E1F0660F771F881F991F1AF0BA95C9F7EF
:104D700014C0B13091F00E943527B1E008950C9431
:104D80003527672F782F8827B85F39F0B93FCCF3E4
:104D9000869577956795B395D9F73EF4909580956C
:104DA000709561957F4F8F4F9F4F0895E89409C08C
:104DB00097FB3EF490958095709561957F4F8F4F4E
:104DC0009F4F9923A9F0F92F96E9BB279395F69564
:104DD000879577956795B795F111F8CFFAF4BB0FE2
:104DE00011F460FF1BC06F5F7F4F8F4F9F4F16C046
:104DF000882311F096E911C0772321F09EE8872FD0
:104E0000762F05C0662371F096E8862F70E060E08B
:104E10002AF09A95660F771F881FDAF7880F969504
:104E2000879597F9089557FD9058440F551F59F0ED
:104E30005F3F71F04795880F97FB991F61F09F3F87
:104E400079F087950895121613061406551FF2CFB0
:104E50004695F1DF08C0161617061806991FF1CF00
:104E600086957105610508940895E894BB27662727
:104E70007727CB0197F908950E944E270C94C827F5
:104E80000E94BA2738F00E94C12720F0952311F024
:104E90000C94B1270C94B7270C9436270E94132743
:104EA00078F39923C9F35523B9F3950F50E0551FB3
:104EB000AA27EE27FF27BB2700240894679520F434
:104EC000E20FF31FB41F0A1E220F331F441FAA1F35
:104ED0006695A9F7779530F4F30FB41F0A1E121EDA
:104EE00008F46395330F441FAA1F221F769599F784
:104EF000879520F4B40F0A1E121E631F440FAA1FC9
:104F0000221F331F8695A9F7862F712D602D11243E
:104F10009F5750409AF0F1F088234AF0EE0FFF1FA0
:104F2000BB1F661F771F881F91505040A9F79E3FF7
:104F3000510580F00C94B1270C9436275F3FE4F3C1
:104F4000983ED4F3869577956795B795F795E7954D
:104F50009F5FC1F7FE2B880F911D9695879597F956
:104F6000089597F99F6780E870E060E008959FEFEB
:104F700080EC089500240A941616170618060906F0
:104F8000089500240A9412161306140605060895BF
:104F9000092E0394000C11F4882352F0BB0F40F447
:104FA000BF2B11F460FF04C06F5F7F4F8F4F9F4F87
:104FB00008950024552704C0080E591F880F991F13
:104FC000009729F076956795B8F37105B9F7802DAC
:104FD000952F0895991B79E004C0991F961708F042
:104FE000961B881F7A95C9F78095089597FB072E21
:104FF00016F4009407D077FD09D00E94102807FC12
:1050000005D03EF4909581959F4F089570956195D8
:105010007F4F0895EE0FFF1F0590F491E02D099446
:10502000AA1BBB1B51E107C0AA1FBB1FA617B707CE
:1050300010F0A61BB70B881F991F5A95A9F78095EA
:0C5040009095BC01CD010895F894FFCFBD
:10504C00FFFF3B0A2C0B090BD50AA10A01B401285E
:10505C0008140A321E404D36225E041104DB03B9DB
:10506C000345035E03770390030001020304050666
:04507C000708090018
:00000001FF
